{
  "_format": "hh-sol-artifact-1",
  "contractName": "Domains",
  "sourceName": "contracts/Domains.sol",
  "abi": [
    {
      "inputs": [
        {
          "internalType": "string",
          "name": "_topLevelDomain",
          "type": "string"
        }
      ],
      "stateMutability": "payable",
      "type": "constructor"
    },
    {
      "inputs": [],
      "name": "AlreadyRegistered",
      "type": "error"
    },
    {
      "inputs": [
        {
          "internalType": "string",
          "name": "name",
          "type": "string"
        }
      ],
      "name": "InvalidName",
      "type": "error"
    },
    {
      "inputs": [],
      "name": "Unauthorized",
      "type": "error"
    },
    {
      "anonymous": false,
      "inputs": [
        {
          "indexed": true,
          "internalType": "address",
          "name": "owner",
          "type": "address"
        },
        {
          "indexed": true,
          "internalType": "address",
          "name": "approved",
          "type": "address"
        },
        {
          "indexed": true,
          "internalType": "uint256",
          "name": "tokenId",
          "type": "uint256"
        }
      ],
      "name": "Approval",
      "type": "event"
    },
    {
      "anonymous": false,
      "inputs": [
        {
          "indexed": true,
          "internalType": "address",
          "name": "owner",
          "type": "address"
        },
        {
          "indexed": true,
          "internalType": "address",
          "name": "operator",
          "type": "address"
        },
        {
          "indexed": false,
          "internalType": "bool",
          "name": "approved",
          "type": "bool"
        }
      ],
      "name": "ApprovalForAll",
      "type": "event"
    },
    {
      "anonymous": false,
      "inputs": [
        {
          "indexed": true,
          "internalType": "address",
          "name": "from",
          "type": "address"
        },
        {
          "indexed": true,
          "internalType": "address",
          "name": "to",
          "type": "address"
        },
        {
          "indexed": true,
          "internalType": "uint256",
          "name": "tokenId",
          "type": "uint256"
        }
      ],
      "name": "Transfer",
      "type": "event"
    },
    {
      "inputs": [
        {
          "internalType": "address",
          "name": "to",
          "type": "address"
        },
        {
          "internalType": "uint256",
          "name": "tokenId",
          "type": "uint256"
        }
      ],
      "name": "approve",
      "outputs": [],
      "stateMutability": "nonpayable",
      "type": "function"
    },
    {
      "inputs": [
        {
          "internalType": "address",
          "name": "owner",
          "type": "address"
        }
      ],
      "name": "balanceOf",
      "outputs": [
        {
          "internalType": "uint256",
          "name": "",
          "type": "uint256"
        }
      ],
      "stateMutability": "view",
      "type": "function"
    },
    {
      "inputs": [
        {
          "internalType": "string",
          "name": "",
          "type": "string"
        }
      ],
      "name": "domains",
      "outputs": [
        {
          "internalType": "address",
          "name": "",
          "type": "address"
        }
      ],
      "stateMutability": "view",
      "type": "function"
    },
    {
      "inputs": [
        {
          "internalType": "string",
          "name": "name",
          "type": "string"
        }
      ],
      "name": "getAddress",
      "outputs": [
        {
          "internalType": "address",
          "name": "",
          "type": "address"
        }
      ],
      "stateMutability": "view",
      "type": "function"
    },
    {
      "inputs": [],
      "name": "getAllNames",
      "outputs": [
        {
          "internalType": "string[]",
          "name": "",
          "type": "string[]"
        }
      ],
      "stateMutability": "view",
      "type": "function"
    },
    {
      "inputs": [
        {
          "internalType": "uint256",
          "name": "tokenId",
          "type": "uint256"
        }
      ],
      "name": "getApproved",
      "outputs": [
        {
          "internalType": "address",
          "name": "",
          "type": "address"
        }
      ],
      "stateMutability": "view",
      "type": "function"
    },
    {
      "inputs": [
        {
          "internalType": "string",
          "name": "name",
          "type": "string"
        }
      ],
      "name": "getRecord",
      "outputs": [
        {
          "internalType": "string",
          "name": "",
          "type": "string"
        }
      ],
      "stateMutability": "view",
      "type": "function"
    },
    {
      "inputs": [
        {
          "internalType": "address",
          "name": "owner",
          "type": "address"
        },
        {
          "internalType": "address",
          "name": "operator",
          "type": "address"
        }
      ],
      "name": "isApprovedForAll",
      "outputs": [
        {
          "internalType": "bool",
          "name": "",
          "type": "bool"
        }
      ],
      "stateMutability": "view",
      "type": "function"
    },
    {
      "inputs": [],
      "name": "isOwner",
      "outputs": [
        {
          "internalType": "bool",
          "name": "",
          "type": "bool"
        }
      ],
      "stateMutability": "view",
      "type": "function"
    },
    {
      "inputs": [],
      "name": "name",
      "outputs": [
        {
          "internalType": "string",
          "name": "",
          "type": "string"
        }
      ],
      "stateMutability": "view",
      "type": "function"
    },
    {
      "inputs": [
        {
          "internalType": "uint256",
          "name": "",
          "type": "uint256"
        }
      ],
      "name": "names",
      "outputs": [
        {
          "internalType": "string",
          "name": "",
          "type": "string"
        }
      ],
      "stateMutability": "view",
      "type": "function"
    },
    {
      "inputs": [],
      "name": "owner",
      "outputs": [
        {
          "internalType": "address payable",
          "name": "",
          "type": "address"
        }
      ],
      "stateMutability": "view",
      "type": "function"
    },
    {
      "inputs": [
        {
          "internalType": "uint256",
          "name": "tokenId",
          "type": "uint256"
        }
      ],
      "name": "ownerOf",
      "outputs": [
        {
          "internalType": "address",
          "name": "",
          "type": "address"
        }
      ],
      "stateMutability": "view",
      "type": "function"
    },
    {
      "inputs": [
        {
          "internalType": "string",
          "name": "name",
          "type": "string"
        }
      ],
      "name": "price",
      "outputs": [
        {
          "internalType": "uint256",
          "name": "",
          "type": "uint256"
        }
      ],
      "stateMutability": "pure",
      "type": "function"
    },
    {
      "inputs": [
        {
          "internalType": "string",
          "name": "",
          "type": "string"
        }
      ],
      "name": "records",
      "outputs": [
        {
          "internalType": "string",
          "name": "",
          "type": "string"
        }
      ],
      "stateMutability": "view",
      "type": "function"
    },
    {
      "inputs": [
        {
          "internalType": "string",
          "name": "name",
          "type": "string"
        }
      ],
      "name": "register",
      "outputs": [],
      "stateMutability": "payable",
      "type": "function"
    },
    {
      "inputs": [
        {
          "internalType": "address",
          "name": "from",
          "type": "address"
        },
        {
          "internalType": "address",
          "name": "to",
          "type": "address"
        },
        {
          "internalType": "uint256",
          "name": "tokenId",
          "type": "uint256"
        }
      ],
      "name": "safeTransferFrom",
      "outputs": [],
      "stateMutability": "nonpayable",
      "type": "function"
    },
    {
      "inputs": [
        {
          "internalType": "address",
          "name": "from",
          "type": "address"
        },
        {
          "internalType": "address",
          "name": "to",
          "type": "address"
        },
        {
          "internalType": "uint256",
          "name": "tokenId",
          "type": "uint256"
        },
        {
          "internalType": "bytes",
          "name": "_data",
          "type": "bytes"
        }
      ],
      "name": "safeTransferFrom",
      "outputs": [],
      "stateMutability": "nonpayable",
      "type": "function"
    },
    {
      "inputs": [
        {
          "internalType": "address",
          "name": "operator",
          "type": "address"
        },
        {
          "internalType": "bool",
          "name": "approved",
          "type": "bool"
        }
      ],
      "name": "setApprovalForAll",
      "outputs": [],
      "stateMutability": "nonpayable",
      "type": "function"
    },
    {
      "inputs": [
        {
          "internalType": "string",
          "name": "name",
          "type": "string"
        },
        {
          "internalType": "string",
          "name": "record",
          "type": "string"
        }
      ],
      "name": "setRecord",
      "outputs": [],
      "stateMutability": "nonpayable",
      "type": "function"
    },
    {
      "inputs": [
        {
          "internalType": "bytes4",
          "name": "interfaceId",
          "type": "bytes4"
        }
      ],
      "name": "supportsInterface",
      "outputs": [
        {
          "internalType": "bool",
          "name": "",
          "type": "bool"
        }
      ],
      "stateMutability": "view",
      "type": "function"
    },
    {
      "inputs": [],
      "name": "symbol",
      "outputs": [
        {
          "internalType": "string",
          "name": "",
          "type": "string"
        }
      ],
      "stateMutability": "view",
      "type": "function"
    },
    {
      "inputs": [
        {
          "internalType": "uint256",
          "name": "tokenId",
          "type": "uint256"
        }
      ],
      "name": "tokenURI",
      "outputs": [
        {
          "internalType": "string",
          "name": "",
          "type": "string"
        }
      ],
      "stateMutability": "view",
      "type": "function"
    },
    {
      "inputs": [],
      "name": "topLevelDomain",
      "outputs": [
        {
          "internalType": "string",
          "name": "",
          "type": "string"
        }
      ],
      "stateMutability": "view",
      "type": "function"
    },
    {
      "inputs": [
        {
          "internalType": "address",
          "name": "from",
          "type": "address"
        },
        {
          "internalType": "address",
          "name": "to",
          "type": "address"
        },
        {
          "internalType": "uint256",
          "name": "tokenId",
          "type": "uint256"
        }
      ],
      "name": "transferFrom",
      "outputs": [],
      "stateMutability": "nonpayable",
      "type": "function"
    },
    {
      "inputs": [
        {
          "internalType": "string",
          "name": "name",
          "type": "string"
        }
      ],
      "name": "valid",
      "outputs": [
        {
          "internalType": "bool",
          "name": "",
          "type": "bool"
        }
      ],
      "stateMutability": "pure",
      "type": "function"
    },
    {
      "inputs": [],
      "name": "withdraw",
      "outputs": [],
      "stateMutability": "nonpayable",
      "type": "function"
    }
  ],
  "bytecode": "0x6080604052604051806108a0016040528061086b81526020016200545761086b9139600a908051906020019062000038929190620002c8565b506040518060400160405280600d81526020017f3c2f746578743e3c2f7376673e00000000000000000000000000000000000000815250600b908051906020019062000086929190620002c8565b5060405162005cc238038062005cc28339818101604052810190620000ac919062000515565b6040518060400160405280601281526020017f4e696e6a61204e616d65205365727669636500000000000000000000000000008152506040518060400160405280600381526020017f4e4e530000000000000000000000000000000000000000000000000000000000815250816000908051906020019062000130929190620002c8565b50806001908051906020019062000149929190620002c8565b50505033600760006101000a81548173ffffffffffffffffffffffffffffffffffffffff021916908373ffffffffffffffffffffffffffffffffffffffff1602179055508060099080519060200190620001a5929190620002c8565b50620001f26040518060400160405280601881526020017f2573206e616d652073657276696365206465706c6f796564000000000000000081525082620001f960201b62001b761760201c565b5062000663565b6200029b828260405160240162000212929190620005c3565b6040516020818303038152906040527f4b5c4277000000000000000000000000000000000000000000000000000000007bffffffffffffffffffffffffffffffffffffffffffffffffffffffff19166020820180517bffffffffffffffffffffffffffffffffffffffffffffffffffffffff83818316178352505050506200029f60201b60201c565b5050565b60008151905060006a636f6e736f6c652e6c6f679050602083016000808483855afa5050505050565b828054620002d6906200062d565b90600052602060002090601f016020900481019282620002fa576000855562000346565b82601f106200031557805160ff191683800117855562000346565b8280016001018555821562000346579182015b828111156200034557825182559160200191906001019062000328565b5b50905062000355919062000359565b5090565b5b80821115620003745760008160009055506001016200035a565b5090565b6000604051905090565b600080fd5b600080fd5b600080fd5b600080fd5b6000601f19601f8301169050919050565b7f4e487b7100000000000000000000000000000000000000000000000000000000600052604160045260246000fd5b620003e18262000396565b810181811067ffffffffffffffff82111715620004035762000402620003a7565b5b80604052505050565b60006200041862000378565b9050620004268282620003d6565b919050565b600067ffffffffffffffff821115620004495762000448620003a7565b5b620004548262000396565b9050602081019050919050565b60005b838110156200048157808201518184015260208101905062000464565b8381111562000491576000848401525b50505050565b6000620004ae620004a8846200042b565b6200040c565b905082815260208101848484011115620004cd57620004cc62000391565b5b620004da84828562000461565b509392505050565b600082601f830112620004fa57620004f96200038c565b5b81516200050c84826020860162000497565b91505092915050565b6000602082840312156200052e576200052d62000382565b5b600082015167ffffffffffffffff8111156200054f576200054e62000387565b5b6200055d84828501620004e2565b91505092915050565b600081519050919050565b600082825260208201905092915050565b60006200058f8262000566565b6200059b818562000571565b9350620005ad81856020860162000461565b620005b88162000396565b840191505092915050565b60006040820190508181036000830152620005df818562000582565b90508181036020830152620005f5818462000582565b90509392505050565b7f4e487b7100000000000000000000000000000000000000000000000000000000600052602260045260246000fd5b600060028204905060018216806200064657607f821691505b602082108114156200065d576200065c620005fe565b5b50919050565b614de480620006736000396000f3fe60806040526004361061019c5760003560e01c806370a08231116100ec578063bf40fac11161008a578063e985e9c511610064578063e985e9c514610624578063f2c298be14610661578063fb825e5f1461067d578063fe2c6198146106a85761019c565b8063bf40fac114610581578063c1880a98146105be578063c87b56dd146105e75761019c565b806395d89b41116100c657806395d89b41146104c75780639791c097146104f2578063a22cb4651461052f578063b88d4fde146105585761019c565b806370a08231146104345780638da5cb5b146104715780638f32d59b1461049c5761019c565b806326449235116101595780634622ab03116101335780634622ab031461035257806352f217431461038f578063541e771d146103ba5780636352211e146103f75761019c565b806326449235146102d55780633ccfd60b1461031257806342842e0e146103295761019c565b806301ffc9a7146101a157806306fdde03146101de578063081812fc14610209578063095ea7b31461024657806311dd88451461026f57806323b872dd146102ac575b600080fd5b3480156101ad57600080fd5b506101c860048036038101906101c391906130f4565b6106e5565b6040516101d5919061313c565b60405180910390f35b3480156101ea57600080fd5b506101f36107c7565b60405161020091906131f0565b60405180910390f35b34801561021557600080fd5b50610230600480360381019061022b9190613248565b610859565b60405161023d91906132b6565b60405180910390f35b34801561025257600080fd5b5061026d600480360381019061026891906132fd565b6108de565b005b34801561027b57600080fd5b50610296600480360381019061029191906133a2565b6109f6565b6040516102a391906131f0565b60405180910390f35b3480156102b857600080fd5b506102d360048036038101906102ce91906133ef565b610aa9565b005b3480156102e157600080fd5b506102fc60048036038101906102f79190613572565b610b09565b60405161030991906132b6565b60405180910390f35b34801561031e57600080fd5b50610327610b52565b005b34801561033557600080fd5b50610350600480360381019061034b91906133ef565b610c18565b005b34801561035e57600080fd5b5061037960048036038101906103749190613248565b610c38565b60405161038691906131f0565b60405180910390f35b34801561039b57600080fd5b506103a4610cd8565b6040516103b191906131f0565b60405180910390f35b3480156103c657600080fd5b506103e160048036038101906103dc9190613572565b610d66565b6040516103ee91906131f0565b60405180910390f35b34801561040357600080fd5b5061041e60048036038101906104199190613248565b610e1c565b60405161042b91906132b6565b60405180910390f35b34801561044057600080fd5b5061045b600480360381019061045691906135bb565b610ece565b60405161046891906135f7565b60405180910390f35b34801561047d57600080fd5b50610486610f86565b6040516104939190613633565b60405180910390f35b3480156104a857600080fd5b506104b1610fac565b6040516104be919061313c565b60405180910390f35b3480156104d357600080fd5b506104dc611004565b6040516104e991906131f0565b60405180910390f35b3480156104fe57600080fd5b50610519600480360381019061051491906133a2565b611096565b604051610526919061313c565b60405180910390f35b34801561053b57600080fd5b506105566004803603810190610551919061367a565b61114a565b005b34801561056457600080fd5b5061057f600480360381019061057a919061375b565b611160565b005b34801561058d57600080fd5b506105a860048036038101906105a391906133a2565b6111c2565b6040516105b591906132b6565b60405180910390f35b3480156105ca57600080fd5b506105e560048036038101906105e091906137de565b61120d565b005b3480156105f357600080fd5b5061060e60048036038101906106099190613248565b6112e8565b60405161061b91906131f0565b60405180910390f35b34801561063057600080fd5b5061064b6004803603810190610646919061385f565b61143a565b604051610658919061313c565b60405180910390f35b61067b600480360381019061067691906133a2565b6114ce565b005b34801561068957600080fd5b506106926118bc565b60405161069f91906139ab565b60405180910390f35b3480156106b457600080fd5b506106cf60048036038101906106ca91906133a2565b611a9a565b6040516106dc91906135f7565b60405180910390f35b60007f80ac58cd000000000000000000000000000000000000000000000000000000007bffffffffffffffffffffffffffffffffffffffffffffffffffffffff1916827bffffffffffffffffffffffffffffffffffffffffffffffffffffffff191614806107b057507f5b5e139f000000000000000000000000000000000000000000000000000000007bffffffffffffffffffffffffffffffffffffffffffffffffffffffff1916827bffffffffffffffffffffffffffffffffffffffffffffffffffffffff1916145b806107c057506107bf82611c12565b5b9050919050565b6060600080546107d6906139fc565b80601f0160208091040260200160405190810160405280929190818152602001828054610802906139fc565b801561084f5780601f106108245761010080835404028352916020019161084f565b820191906000526020600020905b81548152906001019060200180831161083257829003601f168201915b5050505050905090565b600061086482611c7c565b6108a3576040517f08c379a000000000000000000000000000000000000000000000000000000000815260040161089a90613aa0565b60405180910390fd5b6004600083815260200190815260200160002060009054906101000a900473ffffffffffffffffffffffffffffffffffffffff169050919050565b60006108e982610e1c565b90508073ffffffffffffffffffffffffffffffffffffffff168373ffffffffffffffffffffffffffffffffffffffff16141561095a576040517f08c379a000000000000000000000000000000000000000000000000000000000815260040161095190613b32565b60405180910390fd5b8073ffffffffffffffffffffffffffffffffffffffff16610979611ce8565b73ffffffffffffffffffffffffffffffffffffffff1614806109a857506109a7816109a2611ce8565b61143a565b5b6109e7576040517f08c379a00000000000000000000000000000000000000000000000000000000081526004016109de90613bc4565b60405180910390fd5b6109f18383611cf0565b505050565b6060600d8383604051610a0a929190613c14565b90815260200160405180910390208054610a23906139fc565b80601f0160208091040260200160405190810160405280929190818152602001828054610a4f906139fc565b8015610a9c5780601f10610a7157610100808354040283529160200191610a9c565b820191906000526020600020905b815481529060010190602001808311610a7f57829003601f168201915b5050505050905092915050565b610aba610ab4611ce8565b82611da9565b610af9576040517f08c379a0000000000000000000000000000000000000000000000000000000008152600401610af090613c9f565b60405180910390fd5b610b04838383611e87565b505050565b600c818051602081018201805184825260208301602085012081835280955050505050506000915054906101000a900473ffffffffffffffffffffffffffffffffffffffff1681565b610b5a610fac565b610b6357600080fd5b600047905060003373ffffffffffffffffffffffffffffffffffffffff1682604051610b8e90613cf0565b60006040518083038185875af1925050503d8060008114610bcb576040519150601f19603f3d011682016040523d82523d6000602084013e610bd0565b606091505b5050905080610c14576040517f08c379a0000000000000000000000000000000000000000000000000000000008152600401610c0b90613d51565b60405180910390fd5b5050565b610c3383838360405180602001604052806000815250611160565b505050565b600e6020528060005260406000206000915090508054610c57906139fc565b80601f0160208091040260200160405190810160405280929190818152602001828054610c83906139fc565b8015610cd05780601f10610ca557610100808354040283529160200191610cd0565b820191906000526020600020905b815481529060010190602001808311610cb357829003601f168201915b505050505081565b60098054610ce5906139fc565b80601f0160208091040260200160405190810160405280929190818152602001828054610d11906139fc565b8015610d5e5780601f10610d3357610100808354040283529160200191610d5e565b820191906000526020600020905b815481529060010190602001808311610d4157829003601f168201915b505050505081565b600d818051602081018201805184825260208301602085012081835280955050505050506000915090508054610d9b906139fc565b80601f0160208091040260200160405190810160405280929190818152602001828054610dc7906139fc565b8015610e145780601f10610de957610100808354040283529160200191610e14565b820191906000526020600020905b815481529060010190602001808311610df757829003601f168201915b505050505081565b6000806002600084815260200190815260200160002060009054906101000a900473ffffffffffffffffffffffffffffffffffffffff169050600073ffffffffffffffffffffffffffffffffffffffff168173ffffffffffffffffffffffffffffffffffffffff161415610ec5576040517f08c379a0000000000000000000000000000000000000000000000000000000008152600401610ebc90613de3565b60405180910390fd5b80915050919050565b60008073ffffffffffffffffffffffffffffffffffffffff168273ffffffffffffffffffffffffffffffffffffffff161415610f3f576040517f08c379a0000000000000000000000000000000000000000000000000000000008152600401610f3690613e75565b60405180910390fd5b600360008373ffffffffffffffffffffffffffffffffffffffff1673ffffffffffffffffffffffffffffffffffffffff168152602001908152602001600020549050919050565b600760009054906101000a900473ffffffffffffffffffffffffffffffffffffffff1681565b6000600760009054906101000a900473ffffffffffffffffffffffffffffffffffffffff1673ffffffffffffffffffffffffffffffffffffffff163373ffffffffffffffffffffffffffffffffffffffff1614905090565b606060018054611013906139fc565b80601f016020809104026020016040519081016040528092919081815260200182805461103f906139fc565b801561108c5780601f106110615761010080835404028352916020019161108c565b820191906000526020600020905b81548152906001019060200180831161106f57829003601f168201915b5050505050905090565b600060036110e784848080601f016020809104026020016040519081016040528093929190818152602001838380828437600081840152601f19601f820116905080830192505050505050506120ee565b101580156111425750600a61113f84848080601f016020809104026020016040519081016040528093929190818152602001838380828437600081840152601f19601f820116905080830192505050505050506120ee565b11155b905092915050565b61115c611155611ce8565b83836122a3565b5050565b61117161116b611ce8565b83611da9565b6111b0576040517f08c379a00000000000000000000000000000000000000000000000000000000081526004016111a790613c9f565b60405180910390fd5b6111bc84848484612410565b50505050565b6000600c83836040516111d6929190613c14565b908152602001604051809103902060009054906101000a900473ffffffffffffffffffffffffffffffffffffffff16905092915050565b600c848460405161121f929190613c14565b908152602001604051809103902060009054906101000a900473ffffffffffffffffffffffffffffffffffffffff1673ffffffffffffffffffffffffffffffffffffffff163373ffffffffffffffffffffffffffffffffffffffff16146112b2576040517f82b4290000000000000000000000000000000000000000000000000000000000815260040160405180910390fd5b8181600d86866040516112c6929190613c14565b908152602001604051809103902091906112e1929190612f5f565b5050505050565b60606112f382611c7c565b611332576040517f08c379a000000000000000000000000000000000000000000000000000000000815260040161132990613f07565b60405180910390fd5b6000600660008481526020019081526020016000208054611352906139fc565b80601f016020809104026020016040519081016040528092919081815260200182805461137e906139fc565b80156113cb5780601f106113a0576101008083540402835291602001916113cb565b820191906000526020600020905b8154815290600101906020018083116113ae57829003601f168201915b5050505050905060006113dc61246c565b90506000815114156113f2578192505050611435565b60008251111561142757808260405160200161140f929190613f58565b60405160208183030381529060405292505050611435565b61143084612483565b925050505b919050565b6000600560008473ffffffffffffffffffffffffffffffffffffffff1673ffffffffffffffffffffffffffffffffffffffff16815260200190815260200160002060008373ffffffffffffffffffffffffffffffffffffffff1673ffffffffffffffffffffffffffffffffffffffff16815260200190815260200160002060009054906101000a900460ff16905092915050565b600073ffffffffffffffffffffffffffffffffffffffff16600c83836040516114f8929190613c14565b908152602001604051809103902060009054906101000a900473ffffffffffffffffffffffffffffffffffffffff1673ffffffffffffffffffffffffffffffffffffffff1614611574576040517f3a81d6fc00000000000000000000000000000000000000000000000000000000815260040160405180910390fd5b61157e8282611096565b6115c15781816040517f7f19f48d0000000000000000000000000000000000000000000000000000000081526004016115b8929190613fa9565b60405180910390fd5b60006115cd8383611a9a565b905080341015611612576040517f08c379a000000000000000000000000000000000000000000000000000000000815260040161160990614019565b60405180910390fd5b60008383600960405160200161162a93929190614119565b60405160208183030381529060405290506000600a82600b6040516020016116549392919061414a565b60405160208183030381529060405290506000611671600861252a565b905060006116c287878080601f016020809104026020016040519081016040528093929190818152602001838380828437600081840152601f19601f820116905080830192505050505050506120ee565b905060006116cf82612538565b90506116f46040518060600160405280602e8152602001614d81602e91398685612699565b600061172a8661170387612738565b84604051602001611716939291906142f7565b604051602081830303815290604052612738565b905060008160405160200161173f91906143a0565b6040516020818303038152906040529050611771604051806060016040528060398152602001614ccf603991396128d0565b6117b06040518060400160405280600e81526020017f46696e616c20746f6b656e55524900000000000000000000000000000000000081525082611b76565b6117d1604051806060016040528060398152602001614d08603991396128d0565b6117db3386612969565b6117e58582612987565b8989600e60008881526020019081526020016000209190611807929190612f5f565b5061181260086129fb565b33600c8b8b604051611825929190613c14565b908152602001604051809103902060006101000a81548173ffffffffffffffffffffffffffffffffffffffff021916908373ffffffffffffffffffffffffffffffffffffffff1602179055506118b06040518060400160405280601b81526020017f2573206861732072656769737465726564206120646f6d61696e21000000000081525033612a11565b50505050505050505050565b60606118fc6040518060400160405280601f81526020017f47657474696e6720616c6c206e616d65732066726f6d20636f6e7472616374008152506128d0565b6000611908600861252a565b67ffffffffffffffff81111561192157611920613447565b5b60405190808252806020026020018201604052801561195457816020015b606081526020019060019003908161193f5790505b50905060005b611964600861252a565b811015611a9257600e60008281526020019081526020016000208054611989906139fc565b80601f01602080910402602001604051908101604052809291908181526020018280546119b5906139fc565b8015611a025780601f106119d757610100808354040283529160200191611a02565b820191906000526020600020905b8154815290600101906020018083116119e557829003601f168201915b5050505050828281518110611a1a57611a196143c2565b5b6020026020010181905250611a7f6040518060400160405280601781526020017f4e616d6520666f7220746f6b656e20256420697320257300000000000000000081525082848481518110611a7257611a716143c2565b5b6020026020010151612aad565b8080611a8a90614420565b91505061195a565b508091505090565b600080611aea84848080601f016020809104026020016040519081016040528093929190818152602001838380828437600081840152601f19601f820116905080830192505050505050506120ee565b905060008111611b2f576040517f08c379a0000000000000000000000000000000000000000000000000000000008152600401611b26906144b5565b60405180910390fd5b6003811415611b49576706f05b59d3b20000915050611b70565b6004811415611b6357670429d069189e0000915050611b70565b67016345785d8a00009150505b92915050565b611c0e8282604051602401611b8c9291906144d5565b6040516020818303038152906040527f4b5c4277000000000000000000000000000000000000000000000000000000007bffffffffffffffffffffffffffffffffffffffffffffffffffffffff19166020820180517bffffffffffffffffffffffffffffffffffffffffffffffffffffffff8381831617835250505050612b4c565b5050565b60007f01ffc9a7000000000000000000000000000000000000000000000000000000007bffffffffffffffffffffffffffffffffffffffffffffffffffffffff1916827bffffffffffffffffffffffffffffffffffffffffffffffffffffffff1916149050919050565b60008073ffffffffffffffffffffffffffffffffffffffff166002600084815260200190815260200160002060009054906101000a900473ffffffffffffffffffffffffffffffffffffffff1673ffffffffffffffffffffffffffffffffffffffff1614159050919050565b600033905090565b816004600083815260200190815260200160002060006101000a81548173ffffffffffffffffffffffffffffffffffffffff021916908373ffffffffffffffffffffffffffffffffffffffff160217905550808273ffffffffffffffffffffffffffffffffffffffff16611d6383610e1c565b73ffffffffffffffffffffffffffffffffffffffff167f8c5be1e5ebec7d5bd14f71427d1e84f3dd0314c0f7b2291e5b200ac8c7c3b92560405160405180910390a45050565b6000611db482611c7c565b611df3576040517f08c379a0000000000000000000000000000000000000000000000000000000008152600401611dea9061457e565b60405180910390fd5b6000611dfe83610e1c565b90508073ffffffffffffffffffffffffffffffffffffffff168473ffffffffffffffffffffffffffffffffffffffff161480611e6d57508373ffffffffffffffffffffffffffffffffffffffff16611e5584610859565b73ffffffffffffffffffffffffffffffffffffffff16145b80611e7e5750611e7d818561143a565b5b91505092915050565b8273ffffffffffffffffffffffffffffffffffffffff16611ea782610e1c565b73ffffffffffffffffffffffffffffffffffffffff1614611efd576040517f08c379a0000000000000000000000000000000000000000000000000000000008152600401611ef490614610565b60405180910390fd5b600073ffffffffffffffffffffffffffffffffffffffff168273ffffffffffffffffffffffffffffffffffffffff161415611f6d576040517f08c379a0000000000000000000000000000000000000000000000000000000008152600401611f64906146a2565b60405180910390fd5b611f78838383612b75565b611f83600082611cf0565b6001600360008573ffffffffffffffffffffffffffffffffffffffff1673ffffffffffffffffffffffffffffffffffffffff1681526020019081526020016000206000828254611fd391906146c2565b925050819055506001600360008473ffffffffffffffffffffffffffffffffffffffff1673ffffffffffffffffffffffffffffffffffffffff168152602001908152602001600020600082825461202a91906146f6565b92505081905550816002600083815260200190815260200160002060006101000a81548173ffffffffffffffffffffffffffffffffffffffff021916908373ffffffffffffffffffffffffffffffffffffffff160217905550808273ffffffffffffffffffffffffffffffffffffffff168473ffffffffffffffffffffffffffffffffffffffff167fddf252ad1be2c89b69c2b068fc378daa952ba7f163c4a11628f55a4df523b3ef60405160405180910390a46120e9838383612b7a565b505050565b60008060008084519050600092505b8082101561229857600085838151811061211a576121196143c2565b5b602001015160f81c60f81b9050608060f81b817effffffffffffffffffffffffffffffffffffffffffffffffffffffffffffff191610156121695760018361216291906146f6565b9250612284565b60e060f81b817effffffffffffffffffffffffffffffffffffffffffffffffffffffffffffff191610156121ab576002836121a491906146f6565b9250612283565b60f060f81b817effffffffffffffffffffffffffffffffffffffffffffffffffffffffffffff191610156121ed576003836121e691906146f6565b9250612282565b60f8801b817effffffffffffffffffffffffffffffffffffffffffffffffffffffffffffff1916101561222e5760048361222791906146f6565b9250612281565b60fc60f81b817effffffffffffffffffffffffffffffffffffffffffffffffffffffffffffff191610156122705760058361226991906146f6565b9250612280565b60068361227d91906146f6565b92505b5b5b5b5b50828061229090614420565b9350506120fd565b829350505050919050565b8173ffffffffffffffffffffffffffffffffffffffff168373ffffffffffffffffffffffffffffffffffffffff161415612312576040517f08c379a000000000000000000000000000000000000000000000000000000000815260040161230990614798565b60405180910390fd5b80600560008573ffffffffffffffffffffffffffffffffffffffff1673ffffffffffffffffffffffffffffffffffffffff16815260200190815260200160002060008473ffffffffffffffffffffffffffffffffffffffff1673ffffffffffffffffffffffffffffffffffffffff16815260200190815260200160002060006101000a81548160ff0219169083151502179055508173ffffffffffffffffffffffffffffffffffffffff168373ffffffffffffffffffffffffffffffffffffffff167f17307eab39ab6107e8899845ad3d59bd9653f200f220920489ca2b5937696c3183604051612403919061313c565b60405180910390a3505050565b61241b848484611e87565b61242784848484612b7f565b612466576040517f08c379a000000000000000000000000000000000000000000000000000000000815260040161245d9061482a565b60405180910390fd5b50505050565b606060405180602001604052806000815250905090565b606061248e82611c7c565b6124cd576040517f08c379a00000000000000000000000000000000000000000000000000000000081526004016124c4906148bc565b60405180910390fd5b60006124d761246c565b905060008151116124f75760405180602001604052806000815250612522565b8061250184612538565b604051602001612512929190613f58565b6040516020818303038152906040525b915050919050565b600081600001549050919050565b60606000821415612580576040518060400160405280600181526020017f30000000000000000000000000000000000000000000000000000000000000008152509050612694565b600082905060005b600082146125b257808061259b90614420565b915050600a826125ab919061490b565b9150612588565b60008167ffffffffffffffff8111156125ce576125cd613447565b5b6040519080825280601f01601f1916602001820160405280156126005781602001600182028036833780820191505090505b5090505b6000851461268d5760018261261991906146c2565b9150600a85612628919061493c565b603061263491906146f6565b60f81b81838151811061264a576126496143c2565b5b60200101907effffffffffffffffffffffffffffffffffffffffffffffffffffffffffffff1916908160001a905350600a85612686919061490b565b9450612604565b8093505050505b919050565b6127338383836040516024016126b19392919061496d565b6040516020818303038152906040527ff362ca59000000000000000000000000000000000000000000000000000000007bffffffffffffffffffffffffffffffffffffffffffffffffffffffff19166020820180517bffffffffffffffffffffffffffffffffffffffffffffffffffffffff8381831617835250505050612b4c565b505050565b6060600082519050600081141561276157604051806020016040528060008152509150506128cb565b6000600360028361277291906146f6565b61277c919061490b565b600461278891906149b2565b9050600060208261279991906146f6565b67ffffffffffffffff8111156127b2576127b1613447565b5b6040519080825280601f01601f1916602001820160405280156127e45781602001600182028036833780820191505090505b5090506000604051806060016040528060408152602001614d41604091399050600181016020830160005b868110156128885760038101905062ffffff818a015116603f8160121c168401518060081b905060ff603f83600c1c1686015116810190508060081b905060ff603f8360061c1686015116810190508060081b905060ff603f831686015116810190508060e01b9050808452600484019350505061280f565b5060038606600181146128a257600281146128b2576128bd565b613d3d60f01b60028303526128bd565b603d60f81b60018303525b508484525050819450505050505b919050565b612966816040516024016128e491906131f0565b6040516020818303038152906040527f41304fac000000000000000000000000000000000000000000000000000000007bffffffffffffffffffffffffffffffffffffffffffffffffffffffff19166020820180517bffffffffffffffffffffffffffffffffffffffffffffffffffffffff8381831617835250505050612b4c565b50565b612983828260405180602001604052806000815250612d07565b5050565b61299082611c7c565b6129cf576040517f08c379a00000000000000000000000000000000000000000000000000000000081526004016129c690614a7e565b60405180910390fd5b806006600084815260200190815260200160002090805190602001906129f6929190612fe5565b505050565b6001816000016000828254019250508190555050565b612aa98282604051602401612a27929190614a9e565b6040516020818303038152906040527f319af333000000000000000000000000000000000000000000000000000000007bffffffffffffffffffffffffffffffffffffffffffffffffffffffff19166020820180517bffffffffffffffffffffffffffffffffffffffffffffffffffffffff8381831617835250505050612b4c565b5050565b612b47838383604051602401612ac593929190614ace565b6040516020818303038152906040527fa3f5c739000000000000000000000000000000000000000000000000000000007bffffffffffffffffffffffffffffffffffffffffffffffffffffffff19166020820180517bffffffffffffffffffffffffffffffffffffffffffffffffffffffff8381831617835250505050612b4c565b505050565b60008151905060006a636f6e736f6c652e6c6f679050602083016000808483855afa5050505050565b505050565b505050565b6000612ba08473ffffffffffffffffffffffffffffffffffffffff16612d62565b15612cfa578373ffffffffffffffffffffffffffffffffffffffff1663150b7a02612bc9611ce8565b8786866040518563ffffffff1660e01b8152600401612beb9493929190614b68565b6020604051808303816000875af1925050508015612c2757506040513d601f19601f82011682018060405250810190612c249190614bc9565b60015b612caa573d8060008114612c57576040519150601f19603f3d011682016040523d82523d6000602084013e612c5c565b606091505b50600081511415612ca2576040517f08c379a0000000000000000000000000000000000000000000000000000000008152600401612c999061482a565b60405180910390fd5b805181602001fd5b63150b7a0260e01b7bffffffffffffffffffffffffffffffffffffffffffffffffffffffff1916817bffffffffffffffffffffffffffffffffffffffffffffffffffffffff191614915050612cff565b600190505b949350505050565b612d118383612d85565b612d1e6000848484612b7f565b612d5d576040517f08c379a0000000000000000000000000000000000000000000000000000000008152600401612d549061482a565b60405180910390fd5b505050565b6000808273ffffffffffffffffffffffffffffffffffffffff163b119050919050565b600073ffffffffffffffffffffffffffffffffffffffff168273ffffffffffffffffffffffffffffffffffffffff161415612df5576040517f08c379a0000000000000000000000000000000000000000000000000000000008152600401612dec90614c42565b60405180910390fd5b612dfe81611c7c565b15612e3e576040517f08c379a0000000000000000000000000000000000000000000000000000000008152600401612e3590614cae565b60405180910390fd5b612e4a60008383612b75565b6001600360008473ffffffffffffffffffffffffffffffffffffffff1673ffffffffffffffffffffffffffffffffffffffff1681526020019081526020016000206000828254612e9a91906146f6565b92505081905550816002600083815260200190815260200160002060006101000a81548173ffffffffffffffffffffffffffffffffffffffff021916908373ffffffffffffffffffffffffffffffffffffffff160217905550808273ffffffffffffffffffffffffffffffffffffffff16600073ffffffffffffffffffffffffffffffffffffffff167fddf252ad1be2c89b69c2b068fc378daa952ba7f163c4a11628f55a4df523b3ef60405160405180910390a4612f5b60008383612b7a565b5050565b828054612f6b906139fc565b90600052602060002090601f016020900481019282612f8d5760008555612fd4565b82601f10612fa657803560ff1916838001178555612fd4565b82800160010185558215612fd4579182015b82811115612fd3578235825591602001919060010190612fb8565b5b509050612fe1919061306b565b5090565b828054612ff1906139fc565b90600052602060002090601f016020900481019282613013576000855561305a565b82601f1061302c57805160ff191683800117855561305a565b8280016001018555821561305a579182015b8281111561305957825182559160200191906001019061303e565b5b509050613067919061306b565b5090565b5b8082111561308457600081600090555060010161306c565b5090565b6000604051905090565b600080fd5b600080fd5b60007fffffffff0000000000000000000000000000000000000000000000000000000082169050919050565b6130d18161309c565b81146130dc57600080fd5b50565b6000813590506130ee816130c8565b92915050565b60006020828403121561310a57613109613092565b5b6000613118848285016130df565b91505092915050565b60008115159050919050565b61313681613121565b82525050565b6000602082019050613151600083018461312d565b92915050565b600081519050919050565b600082825260208201905092915050565b60005b83811015613191578082015181840152602081019050613176565b838111156131a0576000848401525b50505050565b6000601f19601f8301169050919050565b60006131c282613157565b6131cc8185613162565b93506131dc818560208601613173565b6131e5816131a6565b840191505092915050565b6000602082019050818103600083015261320a81846131b7565b905092915050565b6000819050919050565b61322581613212565b811461323057600080fd5b50565b6000813590506132428161321c565b92915050565b60006020828403121561325e5761325d613092565b5b600061326c84828501613233565b91505092915050565b600073ffffffffffffffffffffffffffffffffffffffff82169050919050565b60006132a082613275565b9050919050565b6132b081613295565b82525050565b60006020820190506132cb60008301846132a7565b92915050565b6132da81613295565b81146132e557600080fd5b50565b6000813590506132f7816132d1565b92915050565b6000806040838503121561331457613313613092565b5b6000613322858286016132e8565b925050602061333385828601613233565b9150509250929050565b600080fd5b600080fd5b600080fd5b60008083601f8401126133625761336161333d565b5b8235905067ffffffffffffffff81111561337f5761337e613342565b5b60208301915083600182028301111561339b5761339a613347565b5b9250929050565b600080602083850312156133b9576133b8613092565b5b600083013567ffffffffffffffff8111156133d7576133d6613097565b5b6133e38582860161334c565b92509250509250929050565b60008060006060848603121561340857613407613092565b5b6000613416868287016132e8565b9350506020613427868287016132e8565b925050604061343886828701613233565b9150509250925092565b600080fd5b7f4e487b7100000000000000000000000000000000000000000000000000000000600052604160045260246000fd5b61347f826131a6565b810181811067ffffffffffffffff8211171561349e5761349d613447565b5b80604052505050565b60006134b1613088565b90506134bd8282613476565b919050565b600067ffffffffffffffff8211156134dd576134dc613447565b5b6134e6826131a6565b9050602081019050919050565b82818337600083830152505050565b6000613515613510846134c2565b6134a7565b90508281526020810184848401111561353157613530613442565b5b61353c8482856134f3565b509392505050565b600082601f8301126135595761355861333d565b5b8135613569848260208601613502565b91505092915050565b60006020828403121561358857613587613092565b5b600082013567ffffffffffffffff8111156135a6576135a5613097565b5b6135b284828501613544565b91505092915050565b6000602082840312156135d1576135d0613092565b5b60006135df848285016132e8565b91505092915050565b6135f181613212565b82525050565b600060208201905061360c60008301846135e8565b92915050565b600061361d82613275565b9050919050565b61362d81613612565b82525050565b60006020820190506136486000830184613624565b92915050565b61365781613121565b811461366257600080fd5b50565b6000813590506136748161364e565b92915050565b6000806040838503121561369157613690613092565b5b600061369f858286016132e8565b92505060206136b085828601613665565b9150509250929050565b600067ffffffffffffffff8211156136d5576136d4613447565b5b6136de826131a6565b9050602081019050919050565b60006136fe6136f9846136ba565b6134a7565b90508281526020810184848401111561371a57613719613442565b5b6137258482856134f3565b509392505050565b600082601f8301126137425761374161333d565b5b81356137528482602086016136eb565b91505092915050565b6000806000806080858703121561377557613774613092565b5b6000613783878288016132e8565b9450506020613794878288016132e8565b93505060406137a587828801613233565b925050606085013567ffffffffffffffff8111156137c6576137c5613097565b5b6137d28782880161372d565b91505092959194509250565b600080600080604085870312156137f8576137f7613092565b5b600085013567ffffffffffffffff81111561381657613815613097565b5b6138228782880161334c565b9450945050602085013567ffffffffffffffff81111561384557613844613097565b5b6138518782880161334c565b925092505092959194509250565b6000806040838503121561387657613875613092565b5b6000613884858286016132e8565b9250506020613895858286016132e8565b9150509250929050565b600081519050919050565b600082825260208201905092915050565b6000819050602082019050919050565b600082825260208201905092915050565b60006138e782613157565b6138f181856138cb565b9350613901818560208601613173565b61390a816131a6565b840191505092915050565b600061392183836138dc565b905092915050565b6000602082019050919050565b60006139418261389f565b61394b81856138aa565b93508360208202850161395d856138bb565b8060005b85811015613999578484038952815161397a8582613915565b945061398583613929565b925060208a01995050600181019050613961565b50829750879550505050505092915050565b600060208201905081810360008301526139c58184613936565b905092915050565b7f4e487b7100000000000000000000000000000000000000000000000000000000600052602260045260246000fd5b60006002820490506001821680613a1457607f821691505b60208210811415613a2857613a276139cd565b5b50919050565b7f4552433732313a20617070726f76656420717565727920666f72206e6f6e657860008201527f697374656e7420746f6b656e0000000000000000000000000000000000000000602082015250565b6000613a8a602c83613162565b9150613a9582613a2e565b604082019050919050565b60006020820190508181036000830152613ab981613a7d565b9050919050565b7f4552433732313a20617070726f76616c20746f2063757272656e74206f776e6560008201527f7200000000000000000000000000000000000000000000000000000000000000602082015250565b6000613b1c602183613162565b9150613b2782613ac0565b604082019050919050565b60006020820190508181036000830152613b4b81613b0f565b9050919050565b7f4552433732313a20617070726f76652063616c6c6572206973206e6f74206f7760008201527f6e6572206e6f7220617070726f76656420666f7220616c6c0000000000000000602082015250565b6000613bae603883613162565b9150613bb982613b52565b604082019050919050565b60006020820190508181036000830152613bdd81613ba1565b9050919050565b600081905092915050565b6000613bfb8385613be4565b9350613c088385846134f3565b82840190509392505050565b6000613c21828486613bef565b91508190509392505050565b7f4552433732313a207472616e736665722063616c6c6572206973206e6f74206f60008201527f776e6572206e6f7220617070726f766564000000000000000000000000000000602082015250565b6000613c89603183613162565b9150613c9482613c2d565b604082019050919050565b60006020820190508181036000830152613cb881613c7c565b9050919050565b600081905092915050565b50565b6000613cda600083613cbf565b9150613ce582613cca565b600082019050919050565b6000613cfb82613ccd565b9150819050919050565b7f4661696c656420746f207769746864726177204d617469630000000000000000600082015250565b6000613d3b601883613162565b9150613d4682613d05565b602082019050919050565b60006020820190508181036000830152613d6a81613d2e565b9050919050565b7f4552433732313a206f776e657220717565727920666f72206e6f6e657869737460008201527f656e7420746f6b656e0000000000000000000000000000000000000000000000602082015250565b6000613dcd602983613162565b9150613dd882613d71565b604082019050919050565b60006020820190508181036000830152613dfc81613dc0565b9050919050565b7f4552433732313a2062616c616e636520717565727920666f7220746865207a6560008201527f726f206164647265737300000000000000000000000000000000000000000000602082015250565b6000613e5f602a83613162565b9150613e6a82613e03565b604082019050919050565b60006020820190508181036000830152613e8e81613e52565b9050919050565b7f45524337323155524953746f726167653a2055524920717565727920666f722060008201527f6e6f6e6578697374656e7420746f6b656e000000000000000000000000000000602082015250565b6000613ef1603183613162565b9150613efc82613e95565b604082019050919050565b60006020820190508181036000830152613f2081613ee4565b9050919050565b6000613f3282613157565b613f3c8185613be4565b9350613f4c818560208601613173565b80840191505092915050565b6000613f648285613f27565b9150613f708284613f27565b91508190509392505050565b6000613f888385613162565b9350613f958385846134f3565b613f9e836131a6565b840190509392505050565b60006020820190508181036000830152613fc4818486613f7c565b90509392505050565b7f4e6f7420656e6f756768204d6174696320706169640000000000000000000000600082015250565b6000614003601583613162565b915061400e82613fcd565b602082019050919050565b6000602082019050818103600083015261403281613ff6565b9050919050565b7f2e00000000000000000000000000000000000000000000000000000000000000600082015250565b600061406f600183613be4565b915061407a82614039565b600182019050919050565b60008190508160005260206000209050919050565b600081546140a7816139fc565b6140b18186613be4565b945060018216600081146140cc57600181146140dd57614110565b60ff19831686528186019350614110565b6140e685614085565b60005b83811015614108578154818901526001820191506020810190506140e9565b838801955050505b50505092915050565b6000614126828587613bef565b915061413182614062565b915061413d828461409a565b9150819050949350505050565b6000614156828661409a565b91506141628285613f27565b915061416e828461409a565b9150819050949350505050565b7f7b226e616d65223a202200000000000000000000000000000000000000000000600082015250565b60006141b1600a83613be4565b91506141bc8261417b565b600a82019050919050565b7f222c20226465736372697074696f6e223a20224120646f6d61696e206f6e207460008201527f6865204e696e6a61206e616d652073657276696365222c2022696d616765223a60208201527f2022646174613a696d6167652f7376672b786d6c3b6261736536342c00000000604082015250565b6000614249605c83613be4565b9150614254826141c7565b605c82019050919050565b7f222c226c656e677468223a220000000000000000000000000000000000000000600082015250565b6000614295600c83613be4565b91506142a08261425f565b600c82019050919050565b7f227d000000000000000000000000000000000000000000000000000000000000600082015250565b60006142e1600283613be4565b91506142ec826142ab565b600282019050919050565b6000614302826141a4565b915061430e8286613f27565b91506143198261423c565b91506143258285613f27565b915061433082614288565b915061433c8284613f27565b9150614347826142d4565b9150819050949350505050565b7f646174613a6170706c69636174696f6e2f6a736f6e3b6261736536342c000000600082015250565b600061438a601d83613be4565b915061439582614354565b601d82019050919050565b60006143ab8261437d565b91506143b78284613f27565b915081905092915050565b7f4e487b7100000000000000000000000000000000000000000000000000000000600052603260045260246000fd5b7f4e487b7100000000000000000000000000000000000000000000000000000000600052601160045260246000fd5b600061442b82613212565b91507fffffffffffffffffffffffffffffffffffffffffffffffffffffffffffffffff82141561445e5761445d6143f1565b5b600182019050919050565b7f446f6d61696e206e616d65206973207265717569726564202100000000000000600082015250565b600061449f601983613162565b91506144aa82614469565b602082019050919050565b600060208201905081810360008301526144ce81614492565b9050919050565b600060408201905081810360008301526144ef81856131b7565b9050818103602083015261450381846131b7565b90509392505050565b7f4552433732313a206f70657261746f7220717565727920666f72206e6f6e657860008201527f697374656e7420746f6b656e0000000000000000000000000000000000000000602082015250565b6000614568602c83613162565b91506145738261450c565b604082019050919050565b600060208201905081810360008301526145978161455b565b9050919050565b7f4552433732313a207472616e736665722066726f6d20696e636f72726563742060008201527f6f776e6572000000000000000000000000000000000000000000000000000000602082015250565b60006145fa602583613162565b91506146058261459e565b604082019050919050565b60006020820190508181036000830152614629816145ed565b9050919050565b7f4552433732313a207472616e7366657220746f20746865207a65726f2061646460008201527f7265737300000000000000000000000000000000000000000000000000000000602082015250565b600061468c602483613162565b915061469782614630565b604082019050919050565b600060208201905081810360008301526146bb8161467f565b9050919050565b60006146cd82613212565b91506146d883613212565b9250828210156146eb576146ea6143f1565b5b828203905092915050565b600061470182613212565b915061470c83613212565b9250827fffffffffffffffffffffffffffffffffffffffffffffffffffffffffffffffff03821115614741576147406143f1565b5b828201905092915050565b7f4552433732313a20617070726f766520746f2063616c6c657200000000000000600082015250565b6000614782601983613162565b915061478d8261474c565b602082019050919050565b600060208201905081810360008301526147b181614775565b9050919050565b7f4552433732313a207472616e7366657220746f206e6f6e20455243373231526560008201527f63656976657220696d706c656d656e7465720000000000000000000000000000602082015250565b6000614814603283613162565b915061481f826147b8565b604082019050919050565b6000602082019050818103600083015261484381614807565b9050919050565b7f4552433732314d657461646174613a2055524920717565727920666f72206e6f60008201527f6e6578697374656e7420746f6b656e0000000000000000000000000000000000602082015250565b60006148a6602f83613162565b91506148b18261484a565b604082019050919050565b600060208201905081810360008301526148d581614899565b9050919050565b7f4e487b7100000000000000000000000000000000000000000000000000000000600052601260045260246000fd5b600061491682613212565b915061492183613212565b925082614931576149306148dc565b5b828204905092915050565b600061494782613212565b915061495283613212565b925082614962576149616148dc565b5b828206905092915050565b6000606082019050818103600083015261498781866131b7565b9050818103602083015261499b81856131b7565b90506149aa60408301846135e8565b949350505050565b60006149bd82613212565b91506149c883613212565b9250817fffffffffffffffffffffffffffffffffffffffffffffffffffffffffffffffff0483118215151615614a0157614a006143f1565b5b828202905092915050565b7f45524337323155524953746f726167653a2055524920736574206f66206e6f6e60008201527f6578697374656e7420746f6b656e000000000000000000000000000000000000602082015250565b6000614a68602e83613162565b9150614a7382614a0c565b604082019050919050565b60006020820190508181036000830152614a9781614a5b565b9050919050565b60006040820190508181036000830152614ab881856131b7565b9050614ac760208301846132a7565b9392505050565b60006060820190508181036000830152614ae881866131b7565b9050614af760208301856135e8565b8181036040830152614b0981846131b7565b9050949350505050565b600081519050919050565b600082825260208201905092915050565b6000614b3a82614b13565b614b448185614b1e565b9350614b54818560208601613173565b614b5d816131a6565b840191505092915050565b6000608082019050614b7d60008301876132a7565b614b8a60208301866132a7565b614b9760408301856135e8565b8181036060830152614ba98184614b2f565b905095945050505050565b600081519050614bc3816130c8565b92915050565b600060208284031215614bdf57614bde613092565b5b6000614bed84828501614bb4565b91505092915050565b7f4552433732313a206d696e7420746f20746865207a65726f2061646472657373600082015250565b6000614c2c602083613162565b9150614c3782614bf6565b602082019050919050565b60006020820190508181036000830152614c5b81614c1f565b9050919050565b7f4552433732313a20746f6b656e20616c7265616479206d696e74656400000000600082015250565b6000614c98601c83613162565b9150614ca382614c62565b602082019050919050565b60006020820190508181036000830152614cc781614c8b565b905091905056fe0a2d2d2d2d2d2d2d2d2d2d2d2d2d2d2d2d2d2d2d2d2d2d2d2d2d2d2d2d2d2d2d2d2d2d2d2d2d2d2d2d2d2d2d2d2d2d2d2d2d2d2d2d2d2d2d2d2d2d2d2d2d2d2d2d2d2d2d2d2d2d2d2d2d2d2d2d2d2d2d2d2d2d2d2d2d2d2d2d2d2d2d2d2d2d2d2d2d2d2d2d2d2d2d2d2d2d2d2d2d2d2d2d0a4142434445464748494a4b4c4d4e4f505152535455565758595a6162636465666768696a6b6c6d6e6f707172737475767778797a303132333435363738392b2f5265676973746572696e67202573206f6e2074686520636f6e7472616374207769746820746f6b656e4944202564a2646970667358221220c07cd64b6554a2a2d9b4cdf5a27f40b2f6abccdb489948a7b8979e872cca63cc64736f6c634300080c00333c73766720786d6c6e733d22687474703a2f2f7777772e77332e6f72672f323030302f737667222077696474683d2232373022206865696768743d22323730222066696c6c3d226e6f6e65223e3c706174682066696c6c3d2275726c282342292220643d224d302030683237307632373048307a222f3e3c646566733e3c66696c7465722069643d22412220636f6c6f722d696e746572706f6c6174696f6e2d66696c746572733d2273524742222066696c746572556e6974733d227573657253706163654f6e55736522206865696768743d22323730222077696474683d22323730223e3c666544726f70536861646f772064783d2230222064793d22312220737464446576696174696f6e3d22322220666c6f6f642d6f7061636974793d222e323235222077696474683d223230302522206865696768743d2232303025222f3e3c2f66696c7465723e3c2f646566733e3c7061746820643d224d37322e3836332034322e393439632d2e3636382d2e3338372d312e3432362d2e35392d322e3139372d2e3539732d312e3532392e3230342d322e3139372e35396c2d31302e30383120362e3033322d362e383520332e3933342d31302e30383120362e303332632d2e3636382e3338372d312e3432362e35392d322e3139372e3539732d312e3532392d2e3230342d322e3139372d2e35396c2d382e3031332d342e37323161342e353220342e35322030203020312d312e3538392d312e363136632d2e3338342d2e3636352d2e3539342d312e3431382d2e3630382d322e313837762d392e3331632d2e3031332d2e3737352e3138352d312e3533382e3537322d322e32303861342e323520342e323520302030203120312e3632352d312e3539356c372e3838342d342e3539632e3636382d2e33383720312e3432362d2e353920322e3139372d2e353973312e3532392e32303420322e3139372e35396c372e38383420342e353961342e353220342e353220302030203120312e35383920312e363136632e3338342e3636352e35393420312e3431382e36303820322e31383776362e3033326c362e38352d342e303635762d362e303332632e3031332d2e3737352d2e3138352d312e3533382d2e3537322d322e32303861342e323520342e32352030203020302d312e3632352d312e3539354c34312e3435362032342e3539632d2e3636382d2e3338372d312e3432362d2e35392d322e3139372d2e3539732d312e3532392e3230342d322e3139372e35396c2d31342e38363420382e36353561342e323520342e32352030203020302d312e36323520312e353935632d2e3338372e36372d2e35383520312e3433342d2e35373220322e3230387631372e343431632d2e3031332e3737352e31383520312e3533382e35373220322e32303861342e323520342e323520302030203020312e36323520312e3539356c31342e38363420382e363535632e3636382e33383720312e3432362e353920322e3139372e353973312e3532392d2e32303420322e3139372d2e35396c31302e3038312d352e39303120362e38352d342e3036352031302e3038312d352e393031632e3636382d2e33383720312e3432362d2e353920322e3139372d2e353973312e3532392e32303420322e3139372e35396c372e38383420342e353961342e353220342e353220302030203120312e35383920312e363136632e3338342e3636352e35393420312e3431382e36303820322e31383776392e333131632e3031332e3737352d2e31383520312e3533382d2e35373220322e32303861342e323520342e32352030203020312d312e36323520312e3539356c2d372e38383420342e373231632d2e3636382e3338372d312e3432362e35392d322e3139372e3539732d312e3532392d2e3230342d322e3139372d2e35396c2d372e3838342d342e353961342e353220342e35322030203020312d312e3538392d312e363136632d2e3338352d2e3636352d2e3539342d312e3431382d2e3630382d322e313837762d362e3033326c2d362e383520342e30363576362e303332632d2e3031332e3737352e31383520312e3533382e35373220322e32303861342e323520342e323520302030203020312e36323520312e3539356c31342e38363420382e363535632e3636382e33383720312e3432362e353920322e3139372e353973312e3532392d2e32303420322e3139372d2e35396c31342e3836342d382e363535632e3635372d2e33393420312e3230342d2e393520312e3538392d312e363136732e3539342d312e3431382e3630392d322e3138375635352e353338632e3031332d2e3737352d2e3138352d312e3533382d2e3537322d322e32303861342e323520342e32352030203020302d312e3632352d312e3539356c2d31342e3939332d382e3738367a222066696c6c3d2223666666222f3e3c646566733e3c6c696e6561724772616469656e742069643d2242222078313d2230222079313d2230222078323d22323730222079323d2232373022206772616469656e74556e6974733d227573657253706163654f6e557365223e3c73746f702073746f702d636f6c6f723d2223636235656565222f3e3c73746f70206f66667365743d2231222073746f702d636f6c6f723d2223306364376534222073746f702d6f7061636974793d222e3939222f3e3c2f6c696e6561724772616469656e743e3c2f646566733e3c7465787420783d2233322e352220793d223233312220666f6e742d73697a653d223237222066696c6c3d2223666666222066696c7465723d2275726c282341292220666f6e742d66616d696c793d22506c7573204a616b617274612053616e732c44656a6156752053616e732c4e6f746f20436f6c6f7220456d6f6a692c4170706c6520436f6c6f7220456d6f6a692c73616e732d73657269662220666f6e742d7765696768743d22626f6c64223e",
  "linkReferences": {},
  "deployedLinkReferences": {}
}