{
    "_format": "hh-sol-artifact-1",
    "contractName": "Domains",
    "sourceName": "contracts/Domains.sol",
    "abi": [
        {
            "inputs": [
                {
                    "internalType": "string",
                    "name": "_topLevelDomain",
                    "type": "string"
                }
            ],
            "stateMutability": "payable",
            "type": "constructor"
        },
        {
            "anonymous": false,
            "inputs": [
                {
                    "indexed": true,
                    "internalType": "address",
                    "name": "owner",
                    "type": "address"
                },
                {
                    "indexed": true,
                    "internalType": "address",
                    "name": "approved",
                    "type": "address"
                },
                {
                    "indexed": true,
                    "internalType": "uint256",
                    "name": "tokenId",
                    "type": "uint256"
                }
            ],
            "name": "Approval",
            "type": "event"
        },
        {
            "anonymous": false,
            "inputs": [
                {
                    "indexed": true,
                    "internalType": "address",
                    "name": "owner",
                    "type": "address"
                },
                {
                    "indexed": true,
                    "internalType": "address",
                    "name": "operator",
                    "type": "address"
                },
                {
                    "indexed": false,
                    "internalType": "bool",
                    "name": "approved",
                    "type": "bool"
                }
            ],
            "name": "ApprovalForAll",
            "type": "event"
        },
        {
            "anonymous": false,
            "inputs": [
                {
                    "indexed": true,
                    "internalType": "address",
                    "name": "from",
                    "type": "address"
                },
                {
                    "indexed": true,
                    "internalType": "address",
                    "name": "to",
                    "type": "address"
                },
                {
                    "indexed": true,
                    "internalType": "uint256",
                    "name": "tokenId",
                    "type": "uint256"
                }
            ],
            "name": "Transfer",
            "type": "event"
        },
        {
            "inputs": [
                {
                    "internalType": "address",
                    "name": "to",
                    "type": "address"
                },
                {
                    "internalType": "uint256",
                    "name": "tokenId",
                    "type": "uint256"
                }
            ],
            "name": "approve",
            "outputs": [],
            "stateMutability": "nonpayable",
            "type": "function"
        },
        {
            "inputs": [
                {
                    "internalType": "address",
                    "name": "owner",
                    "type": "address"
                }
            ],
            "name": "balanceOf",
            "outputs": [
                {
                    "internalType": "uint256",
                    "name": "",
                    "type": "uint256"
                }
            ],
            "stateMutability": "view",
            "type": "function"
        },
        {
            "inputs": [
                {
                    "internalType": "string",
                    "name": "",
                    "type": "string"
                }
            ],
            "name": "domains",
            "outputs": [
                {
                    "internalType": "address",
                    "name": "",
                    "type": "address"
                }
            ],
            "stateMutability": "view",
            "type": "function"
        },
        {
            "inputs": [
                {
                    "internalType": "string",
                    "name": "name",
                    "type": "string"
                }
            ],
            "name": "getAddress",
            "outputs": [
                {
                    "internalType": "address",
                    "name": "",
                    "type": "address"
                }
            ],
            "stateMutability": "view",
            "type": "function"
        },
        {
            "inputs": [
                {
                    "internalType": "uint256",
                    "name": "tokenId",
                    "type": "uint256"
                }
            ],
            "name": "getApproved",
            "outputs": [
                {
                    "internalType": "address",
                    "name": "",
                    "type": "address"
                }
            ],
            "stateMutability": "view",
            "type": "function"
        },
        {
            "inputs": [
                {
                    "internalType": "string",
                    "name": "name",
                    "type": "string"
                }
            ],
            "name": "getRecord",
            "outputs": [
                {
                    "internalType": "string",
                    "name": "",
                    "type": "string"
                }
            ],
            "stateMutability": "view",
            "type": "function"
        },
        {
            "inputs": [
                {
                    "internalType": "address",
                    "name": "owner",
                    "type": "address"
                },
                {
                    "internalType": "address",
                    "name": "operator",
                    "type": "address"
                }
            ],
            "name": "isApprovedForAll",
            "outputs": [
                {
                    "internalType": "bool",
                    "name": "",
                    "type": "bool"
                }
            ],
            "stateMutability": "view",
            "type": "function"
        },
        {
            "inputs": [],
            "name": "name",
            "outputs": [
                {
                    "internalType": "string",
                    "name": "",
                    "type": "string"
                }
            ],
            "stateMutability": "view",
            "type": "function"
        },
        {
            "inputs": [
                {
                    "internalType": "uint256",
                    "name": "tokenId",
                    "type": "uint256"
                }
            ],
            "name": "ownerOf",
            "outputs": [
                {
                    "internalType": "address",
                    "name": "",
                    "type": "address"
                }
            ],
            "stateMutability": "view",
            "type": "function"
        },
        {
            "inputs": [
                {
                    "internalType": "string",
                    "name": "name",
                    "type": "string"
                }
            ],
            "name": "price",
            "outputs": [
                {
                    "internalType": "uint256",
                    "name": "",
                    "type": "uint256"
                }
            ],
            "stateMutability": "pure",
            "type": "function"
        },
        {
            "inputs": [
                {
                    "internalType": "string",
                    "name": "",
                    "type": "string"
                }
            ],
            "name": "records",
            "outputs": [
                {
                    "internalType": "string",
                    "name": "",
                    "type": "string"
                }
            ],
            "stateMutability": "view",
            "type": "function"
        },
        {
            "inputs": [
                {
                    "internalType": "string",
                    "name": "name",
                    "type": "string"
                }
            ],
            "name": "register",
            "outputs": [],
            "stateMutability": "payable",
            "type": "function"
        },
        {
            "inputs": [
                {
                    "internalType": "address",
                    "name": "from",
                    "type": "address"
                },
                {
                    "internalType": "address",
                    "name": "to",
                    "type": "address"
                },
                {
                    "internalType": "uint256",
                    "name": "tokenId",
                    "type": "uint256"
                }
            ],
            "name": "safeTransferFrom",
            "outputs": [],
            "stateMutability": "nonpayable",
            "type": "function"
        },
        {
            "inputs": [
                {
                    "internalType": "address",
                    "name": "from",
                    "type": "address"
                },
                {
                    "internalType": "address",
                    "name": "to",
                    "type": "address"
                },
                {
                    "internalType": "uint256",
                    "name": "tokenId",
                    "type": "uint256"
                },
                {
                    "internalType": "bytes",
                    "name": "_data",
                    "type": "bytes"
                }
            ],
            "name": "safeTransferFrom",
            "outputs": [],
            "stateMutability": "nonpayable",
            "type": "function"
        },
        {
            "inputs": [
                {
                    "internalType": "address",
                    "name": "operator",
                    "type": "address"
                },
                {
                    "internalType": "bool",
                    "name": "approved",
                    "type": "bool"
                }
            ],
            "name": "setApprovalForAll",
            "outputs": [],
            "stateMutability": "nonpayable",
            "type": "function"
        },
        {
            "inputs": [
                {
                    "internalType": "string",
                    "name": "name",
                    "type": "string"
                },
                {
                    "internalType": "string",
                    "name": "record",
                    "type": "string"
                }
            ],
            "name": "setRecord",
            "outputs": [],
            "stateMutability": "nonpayable",
            "type": "function"
        },
        {
            "inputs": [
                {
                    "internalType": "bytes4",
                    "name": "interfaceId",
                    "type": "bytes4"
                }
            ],
            "name": "supportsInterface",
            "outputs": [
                {
                    "internalType": "bool",
                    "name": "",
                    "type": "bool"
                }
            ],
            "stateMutability": "view",
            "type": "function"
        },
        {
            "inputs": [],
            "name": "symbol",
            "outputs": [
                {
                    "internalType": "string",
                    "name": "",
                    "type": "string"
                }
            ],
            "stateMutability": "view",
            "type": "function"
        },
        {
            "inputs": [
                {
                    "internalType": "uint256",
                    "name": "tokenId",
                    "type": "uint256"
                }
            ],
            "name": "tokenURI",
            "outputs": [
                {
                    "internalType": "string",
                    "name": "",
                    "type": "string"
                }
            ],
            "stateMutability": "view",
            "type": "function"
        },
        {
            "inputs": [],
            "name": "topLevelDomain",
            "outputs": [
                {
                    "internalType": "string",
                    "name": "",
                    "type": "string"
                }
            ],
            "stateMutability": "view",
            "type": "function"
        },
        {
            "inputs": [
                {
                    "internalType": "address",
                    "name": "from",
                    "type": "address"
                },
                {
                    "internalType": "address",
                    "name": "to",
                    "type": "address"
                },
                {
                    "internalType": "uint256",
                    "name": "tokenId",
                    "type": "uint256"
                }
            ],
            "name": "transferFrom",
            "outputs": [],
            "stateMutability": "nonpayable",
            "type": "function"
        }
    ],
    "bytecode": "0x6080604052604051806108a0016040528061086b815260200162004b4561086b9139600990805190602001906200003892919062000287565b506040518060400160405280600d81526020017f3c2f746578743e3c2f7376673e00000000000000000000000000000000000000815250600a90805190602001906200008692919062000287565b50604051620053b0380380620053b08339818101604052810190620000ac9190620004d4565b6040518060400160405280601281526020017f4e696e6a61204e616d65205365727669636500000000000000000000000000008152506040518060400160405280600381526020017f4e4e53000000000000000000000000000000000000000000000000000000000081525081600090805190602001906200013092919062000287565b5080600190805190602001906200014992919062000287565b50505080600890805190602001906200016492919062000287565b50620001b16040518060400160405280601881526020017f2573206e616d652073657276696365206465706c6f796564000000000000000081525082620001b860201b6200151e1760201c565b5062000622565b6200025a8282604051602401620001d192919062000582565b6040516020818303038152906040527f4b5c4277000000000000000000000000000000000000000000000000000000007bffffffffffffffffffffffffffffffffffffffffffffffffffffffff19166020820180517bffffffffffffffffffffffffffffffffffffffffffffffffffffffff83818316178352505050506200025e60201b60201c565b5050565b60008151905060006a636f6e736f6c652e6c6f679050602083016000808483855afa5050505050565b8280546200029590620005ec565b90600052602060002090601f016020900481019282620002b9576000855562000305565b82601f10620002d457805160ff191683800117855562000305565b8280016001018555821562000305579182015b8281111562000304578251825591602001919060010190620002e7565b5b50905062000314919062000318565b5090565b5b808211156200033357600081600090555060010162000319565b5090565b6000604051905090565b600080fd5b600080fd5b600080fd5b600080fd5b6000601f19601f8301169050919050565b7f4e487b7100000000000000000000000000000000000000000000000000000000600052604160045260246000fd5b620003a08262000355565b810181811067ffffffffffffffff82111715620003c257620003c162000366565b5b80604052505050565b6000620003d762000337565b9050620003e5828262000395565b919050565b600067ffffffffffffffff82111562000408576200040762000366565b5b620004138262000355565b9050602081019050919050565b60005b838110156200044057808201518184015260208101905062000423565b8381111562000450576000848401525b50505050565b60006200046d6200046784620003ea565b620003cb565b9050828152602081018484840111156200048c576200048b62000350565b5b6200049984828562000420565b509392505050565b600082601f830112620004b957620004b86200034b565b5b8151620004cb84826020860162000456565b91505092915050565b600060208284031215620004ed57620004ec62000341565b5b600082015167ffffffffffffffff8111156200050e576200050d62000346565b5b6200051c84828501620004a1565b91505092915050565b600081519050919050565b600082825260208201905092915050565b60006200054e8262000525565b6200055a818562000530565b93506200056c81856020860162000420565b620005778162000355565b840191505092915050565b600060408201905081810360008301526200059e818562000541565b90508181036020830152620005b4818462000541565b90509392505050565b7f4e487b7100000000000000000000000000000000000000000000000000000000600052602260045260246000fd5b600060028204905060018216806200060557607f821691505b602082108114156200061c576200061b620005bd565b5b50919050565b61451380620006326000396000f3fe60806040526004361061012a5760003560e01c80636352211e116100ab578063bf40fac11161006f578063bf40fac114610428578063c1880a9814610465578063c87b56dd1461048e578063e985e9c5146104cb578063f2c298be14610508578063fe2c6198146105245761012a565b80636352211e1461033157806370a082311461036e57806395d89b41146103ab578063a22cb465146103d6578063b88d4fde146103ff5761012a565b806323b872dd116100f257806323b872dd1461023a578063264492351461026357806342842e0e146102a057806352f21743146102c9578063541e771d146102f45761012a565b806301ffc9a71461012f57806306fdde031461016c578063081812fc14610197578063095ea7b3146101d457806311dd8845146101fd575b600080fd5b34801561013b57600080fd5b50610156600480360381019061015191906129fd565b610561565b6040516101639190612a45565b60405180910390f35b34801561017857600080fd5b50610181610643565b60405161018e9190612af9565b60405180910390f35b3480156101a357600080fd5b506101be60048036038101906101b99190612b51565b6106d5565b6040516101cb9190612bbf565b60405180910390f35b3480156101e057600080fd5b506101fb60048036038101906101f69190612c06565b61075a565b005b34801561020957600080fd5b50610224600480360381019061021f9190612cab565b610872565b6040516102319190612af9565b60405180910390f35b34801561024657600080fd5b50610261600480360381019061025c9190612cf8565b610925565b005b34801561026f57600080fd5b5061028a60048036038101906102859190612e7b565b610985565b6040516102979190612bbf565b60405180910390f35b3480156102ac57600080fd5b506102c760048036038101906102c29190612cf8565b6109ce565b005b3480156102d557600080fd5b506102de6109ee565b6040516102eb9190612af9565b60405180910390f35b34801561030057600080fd5b5061031b60048036038101906103169190612e7b565b610a7c565b6040516103289190612af9565b60405180910390f35b34801561033d57600080fd5b5061035860048036038101906103539190612b51565b610b32565b6040516103659190612bbf565b60405180910390f35b34801561037a57600080fd5b5061039560048036038101906103909190612ec4565b610be4565b6040516103a29190612f00565b60405180910390f35b3480156103b757600080fd5b506103c0610c9c565b6040516103cd9190612af9565b60405180910390f35b3480156103e257600080fd5b506103fd60048036038101906103f89190612f47565b610d2e565b005b34801561040b57600080fd5b5061042660048036038101906104219190613028565b610d44565b005b34801561043457600080fd5b5061044f600480360381019061044a9190612cab565b610da6565b60405161045c9190612bbf565b60405180910390f35b34801561047157600080fd5b5061048c600480360381019061048791906130ab565b610df1565b005b34801561049a57600080fd5b506104b560048036038101906104b09190612b51565b610ed5565b6040516104c29190612af9565b60405180910390f35b3480156104d757600080fd5b506104f260048036038101906104ed919061312c565b611027565b6040516104ff9190612a45565b60405180910390f35b610522600480360381019061051d9190612cab565b6110bb565b005b34801561053057600080fd5b5061054b60048036038101906105469190612cab565b611442565b6040516105589190612f00565b60405180910390f35b60007f80ac58cd000000000000000000000000000000000000000000000000000000007bffffffffffffffffffffffffffffffffffffffffffffffffffffffff1916827bffffffffffffffffffffffffffffffffffffffffffffffffffffffff1916148061062c57507f5b5e139f000000000000000000000000000000000000000000000000000000007bffffffffffffffffffffffffffffffffffffffffffffffffffffffff1916827bffffffffffffffffffffffffffffffffffffffffffffffffffffffff1916145b8061063c575061063b826115ba565b5b9050919050565b6060600080546106529061319b565b80601f016020809104026020016040519081016040528092919081815260200182805461067e9061319b565b80156106cb5780601f106106a0576101008083540402835291602001916106cb565b820191906000526020600020905b8154815290600101906020018083116106ae57829003601f168201915b5050505050905090565b60006106e082611624565b61071f576040517f08c379a00000000000000000000000000000000000000000000000000000000081526004016107169061323f565b60405180910390fd5b6004600083815260200190815260200160002060009054906101000a900473ffffffffffffffffffffffffffffffffffffffff169050919050565b600061076582610b32565b90508073ffffffffffffffffffffffffffffffffffffffff168373ffffffffffffffffffffffffffffffffffffffff1614156107d6576040517f08c379a00000000000000000000000000000000000000000000000000000000081526004016107cd906132d1565b60405180910390fd5b8073ffffffffffffffffffffffffffffffffffffffff166107f5611690565b73ffffffffffffffffffffffffffffffffffffffff16148061082457506108238161081e611690565b611027565b5b610863576040517f08c379a000000000000000000000000000000000000000000000000000000000815260040161085a90613363565b60405180910390fd5b61086d8383611698565b505050565b6060600c83836040516108869291906133b3565b9081526020016040518091039020805461089f9061319b565b80601f01602080910402602001604051908101604052809291908181526020018280546108cb9061319b565b80156109185780601f106108ed57610100808354040283529160200191610918565b820191906000526020600020905b8154815290600101906020018083116108fb57829003601f168201915b5050505050905092915050565b610936610930611690565b82611751565b610975576040517f08c379a000000000000000000000000000000000000000000000000000000000815260040161096c9061343e565b60405180910390fd5b61098083838361182f565b505050565b600b818051602081018201805184825260208301602085012081835280955050505050506000915054906101000a900473ffffffffffffffffffffffffffffffffffffffff1681565b6109e983838360405180602001604052806000815250610d44565b505050565b600880546109fb9061319b565b80601f0160208091040260200160405190810160405280929190818152602001828054610a279061319b565b8015610a745780601f10610a4957610100808354040283529160200191610a74565b820191906000526020600020905b815481529060010190602001808311610a5757829003601f168201915b505050505081565b600c818051602081018201805184825260208301602085012081835280955050505050506000915090508054610ab19061319b565b80601f0160208091040260200160405190810160405280929190818152602001828054610add9061319b565b8015610b2a5780601f10610aff57610100808354040283529160200191610b2a565b820191906000526020600020905b815481529060010190602001808311610b0d57829003601f168201915b505050505081565b6000806002600084815260200190815260200160002060009054906101000a900473ffffffffffffffffffffffffffffffffffffffff169050600073ffffffffffffffffffffffffffffffffffffffff168173ffffffffffffffffffffffffffffffffffffffff161415610bdb576040517f08c379a0000000000000000000000000000000000000000000000000000000008152600401610bd2906134d0565b60405180910390fd5b80915050919050565b60008073ffffffffffffffffffffffffffffffffffffffff168273ffffffffffffffffffffffffffffffffffffffff161415610c55576040517f08c379a0000000000000000000000000000000000000000000000000000000008152600401610c4c90613562565b60405180910390fd5b600360008373ffffffffffffffffffffffffffffffffffffffff1673ffffffffffffffffffffffffffffffffffffffff168152602001908152602001600020549050919050565b606060018054610cab9061319b565b80601f0160208091040260200160405190810160405280929190818152602001828054610cd79061319b565b8015610d245780601f10610cf957610100808354040283529160200191610d24565b820191906000526020600020905b815481529060010190602001808311610d0757829003601f168201915b5050505050905090565b610d40610d39611690565b8383611a96565b5050565b610d55610d4f611690565b83611751565b610d94576040517f08c379a0000000000000000000000000000000000000000000000000000000008152600401610d8b9061343e565b60405180910390fd5b610da084848484611c03565b50505050565b6000600b8383604051610dba9291906133b3565b908152602001604051809103902060009054906101000a900473ffffffffffffffffffffffffffffffffffffffff16905092915050565b3373ffffffffffffffffffffffffffffffffffffffff16600b8585604051610e1a9291906133b3565b908152602001604051809103902060009054906101000a900473ffffffffffffffffffffffffffffffffffffffff1673ffffffffffffffffffffffffffffffffffffffff1614610e9f576040517f08c379a0000000000000000000000000000000000000000000000000000000008152600401610e96906135ce565b60405180910390fd5b8181600c8686604051610eb39291906133b3565b90815260200160405180910390209190610ece929190612868565b5050505050565b6060610ee082611624565b610f1f576040517f08c379a0000000000000000000000000000000000000000000000000000000008152600401610f1690613660565b60405180910390fd5b6000600660008481526020019081526020016000208054610f3f9061319b565b80601f0160208091040260200160405190810160405280929190818152602001828054610f6b9061319b565b8015610fb85780601f10610f8d57610100808354040283529160200191610fb8565b820191906000526020600020905b815481529060010190602001808311610f9b57829003601f168201915b505050505090506000610fc9611c5f565b9050600081511415610fdf578192505050611022565b600082511115611014578082604051602001610ffc9291906136b1565b60405160208183030381529060405292505050611022565b61101d84611c76565b925050505b919050565b6000600560008473ffffffffffffffffffffffffffffffffffffffff1673ffffffffffffffffffffffffffffffffffffffff16815260200190815260200160002060008373ffffffffffffffffffffffffffffffffffffffff1673ffffffffffffffffffffffffffffffffffffffff16815260200190815260200160002060009054906101000a900460ff16905092915050565b600073ffffffffffffffffffffffffffffffffffffffff16600b83836040516110e59291906133b3565b908152602001604051809103902060009054906101000a900473ffffffffffffffffffffffffffffffffffffffff1673ffffffffffffffffffffffffffffffffffffffff161461116a576040517f08c379a000000000000000000000000000000000000000000000000000000000815260040161116190613721565b60405180910390fd5b60006111768383611442565b9050803410156111bb576040517f08c379a00000000000000000000000000000000000000000000000000000000081526004016111b29061378d565b60405180910390fd5b6000838360086040516020016111d39392919061388d565b60405160208183030381529060405290506000600982600a6040516020016111fd939291906138be565b6040516020818303038152906040529050600061121a6007611d1d565b9050600061126b87878080601f016020809104026020016040519081016040528093929190818152602001838380828437600081840152601f19601f82011690508083019250505050505050611d2b565b9050600061127882611ee0565b905061129d6040518060600160405280602e81526020016144b0602e91398685612041565b60006112d3866112ac876120e0565b846040516020016112bf93929190613a6b565b6040516020818303038152906040526120e0565b90506000816040516020016112e89190613b14565b604051602081830303815290604052905061131a6040518060600160405280603981526020016143fe60399139612278565b6113596040518060400160405280600e81526020017f46696e616c20746f6b656e5552490000000000000000000000000000000000008152508261151e565b61137a60405180606001604052806039815260200161443760399139612278565b6113843386612311565b61138e858261232f565b61139860076123a3565b33600b8b8b6040516113ab9291906133b3565b908152602001604051809103902060006101000a81548173ffffffffffffffffffffffffffffffffffffffff021916908373ffffffffffffffffffffffffffffffffffffffff1602179055506114366040518060400160405280601b81526020017f2573206861732072656769737465726564206120646f6d61696e210000000000815250336123b9565b50505050505050505050565b60008061149284848080601f016020809104026020016040519081016040528093929190818152602001838380828437600081840152601f19601f82011690508083019250505050505050611d2b565b9050600081116114d7576040517f08c379a00000000000000000000000000000000000000000000000000000000081526004016114ce90613b82565b60405180910390fd5b60038114156114f1576706f05b59d3b20000915050611518565b600481141561150b57670429d069189e0000915050611518565b67016345785d8a00009150505b92915050565b6115b68282604051602401611534929190613ba2565b6040516020818303038152906040527f4b5c4277000000000000000000000000000000000000000000000000000000007bffffffffffffffffffffffffffffffffffffffffffffffffffffffff19166020820180517bffffffffffffffffffffffffffffffffffffffffffffffffffffffff8381831617835250505050612455565b5050565b60007f01ffc9a7000000000000000000000000000000000000000000000000000000007bffffffffffffffffffffffffffffffffffffffffffffffffffffffff1916827bffffffffffffffffffffffffffffffffffffffffffffffffffffffff1916149050919050565b60008073ffffffffffffffffffffffffffffffffffffffff166002600084815260200190815260200160002060009054906101000a900473ffffffffffffffffffffffffffffffffffffffff1673ffffffffffffffffffffffffffffffffffffffff1614159050919050565b600033905090565b816004600083815260200190815260200160002060006101000a81548173ffffffffffffffffffffffffffffffffffffffff021916908373ffffffffffffffffffffffffffffffffffffffff160217905550808273ffffffffffffffffffffffffffffffffffffffff1661170b83610b32565b73ffffffffffffffffffffffffffffffffffffffff167f8c5be1e5ebec7d5bd14f71427d1e84f3dd0314c0f7b2291e5b200ac8c7c3b92560405160405180910390a45050565b600061175c82611624565b61179b576040517f08c379a000000000000000000000000000000000000000000000000000000000815260040161179290613c4b565b60405180910390fd5b60006117a683610b32565b90508073ffffffffffffffffffffffffffffffffffffffff168473ffffffffffffffffffffffffffffffffffffffff16148061181557508373ffffffffffffffffffffffffffffffffffffffff166117fd846106d5565b73ffffffffffffffffffffffffffffffffffffffff16145b8061182657506118258185611027565b5b91505092915050565b8273ffffffffffffffffffffffffffffffffffffffff1661184f82610b32565b73ffffffffffffffffffffffffffffffffffffffff16146118a5576040517f08c379a000000000000000000000000000000000000000000000000000000000815260040161189c90613cdd565b60405180910390fd5b600073ffffffffffffffffffffffffffffffffffffffff168273ffffffffffffffffffffffffffffffffffffffff161415611915576040517f08c379a000000000000000000000000000000000000000000000000000000000815260040161190c90613d6f565b60405180910390fd5b61192083838361247e565b61192b600082611698565b6001600360008573ffffffffffffffffffffffffffffffffffffffff1673ffffffffffffffffffffffffffffffffffffffff168152602001908152602001600020600082825461197b9190613dbe565b925050819055506001600360008473ffffffffffffffffffffffffffffffffffffffff1673ffffffffffffffffffffffffffffffffffffffff16815260200190815260200160002060008282546119d29190613df2565b92505081905550816002600083815260200190815260200160002060006101000a81548173ffffffffffffffffffffffffffffffffffffffff021916908373ffffffffffffffffffffffffffffffffffffffff160217905550808273ffffffffffffffffffffffffffffffffffffffff168473ffffffffffffffffffffffffffffffffffffffff167fddf252ad1be2c89b69c2b068fc378daa952ba7f163c4a11628f55a4df523b3ef60405160405180910390a4611a91838383612483565b505050565b8173ffffffffffffffffffffffffffffffffffffffff168373ffffffffffffffffffffffffffffffffffffffff161415611b05576040517f08c379a0000000000000000000000000000000000000000000000000000000008152600401611afc90613e94565b60405180910390fd5b80600560008573ffffffffffffffffffffffffffffffffffffffff1673ffffffffffffffffffffffffffffffffffffffff16815260200190815260200160002060008473ffffffffffffffffffffffffffffffffffffffff1673ffffffffffffffffffffffffffffffffffffffff16815260200190815260200160002060006101000a81548160ff0219169083151502179055508173ffffffffffffffffffffffffffffffffffffffff168373ffffffffffffffffffffffffffffffffffffffff167f17307eab39ab6107e8899845ad3d59bd9653f200f220920489ca2b5937696c3183604051611bf69190612a45565b60405180910390a3505050565b611c0e84848461182f565b611c1a84848484612488565b611c59576040517f08c379a0000000000000000000000000000000000000000000000000000000008152600401611c5090613f26565b60405180910390fd5b50505050565b606060405180602001604052806000815250905090565b6060611c8182611624565b611cc0576040517f08c379a0000000000000000000000000000000000000000000000000000000008152600401611cb790613fb8565b60405180910390fd5b6000611cca611c5f565b90506000815111611cea5760405180602001604052806000815250611d15565b80611cf484611ee0565b604051602001611d059291906136b1565b6040516020818303038152906040525b915050919050565b600081600001549050919050565b60008060008084519050600092505b80821015611ed5576000858381518110611d5757611d56613fd8565b5b602001015160f81c60f81b9050608060f81b817effffffffffffffffffffffffffffffffffffffffffffffffffffffffffffff19161015611da657600183611d9f9190613df2565b9250611ec1565b60e060f81b817effffffffffffffffffffffffffffffffffffffffffffffffffffffffffffff19161015611de857600283611de19190613df2565b9250611ec0565b60f060f81b817effffffffffffffffffffffffffffffffffffffffffffffffffffffffffffff19161015611e2a57600383611e239190613df2565b9250611ebf565b60f8801b817effffffffffffffffffffffffffffffffffffffffffffffffffffffffffffff19161015611e6b57600483611e649190613df2565b9250611ebe565b60fc60f81b817effffffffffffffffffffffffffffffffffffffffffffffffffffffffffffff19161015611ead57600583611ea69190613df2565b9250611ebd565b600683611eba9190613df2565b92505b5b5b5b5b508280611ecd90614007565b935050611d3a565b829350505050919050565b60606000821415611f28576040518060400160405280600181526020017f3000000000000000000000000000000000000000000000000000000000000000815250905061203c565b600082905060005b60008214611f5a578080611f4390614007565b915050600a82611f53919061407f565b9150611f30565b60008167ffffffffffffffff811115611f7657611f75612d50565b5b6040519080825280601f01601f191660200182016040528015611fa85781602001600182028036833780820191505090505b5090505b6000851461203557600182611fc19190613dbe565b9150600a85611fd091906140b0565b6030611fdc9190613df2565b60f81b818381518110611ff257611ff1613fd8565b5b60200101907effffffffffffffffffffffffffffffffffffffffffffffffffffffffffffff1916908160001a905350600a8561202e919061407f565b9450611fac565b8093505050505b919050565b6120db838383604051602401612059939291906140e1565b6040516020818303038152906040527ff362ca59000000000000000000000000000000000000000000000000000000007bffffffffffffffffffffffffffffffffffffffffffffffffffffffff19166020820180517bffffffffffffffffffffffffffffffffffffffffffffffffffffffff8381831617835250505050612455565b505050565b606060008251905060008114156121095760405180602001604052806000815250915050612273565b6000600360028361211a9190613df2565b612124919061407f565b60046121309190614126565b905060006020826121419190613df2565b67ffffffffffffffff81111561215a57612159612d50565b5b6040519080825280601f01601f19166020018201604052801561218c5781602001600182028036833780820191505090505b5090506000604051806060016040528060408152602001614470604091399050600181016020830160005b868110156122305760038101905062ffffff818a015116603f8160121c168401518060081b905060ff603f83600c1c1686015116810190508060081b905060ff603f8360061c1686015116810190508060081b905060ff603f831686015116810190508060e01b905080845260048401935050506121b7565b50600386066001811461224a576002811461225a57612265565b613d3d60f01b6002830352612265565b603d60f81b60018303525b508484525050819450505050505b919050565b61230e8160405160240161228c9190612af9565b6040516020818303038152906040527f41304fac000000000000000000000000000000000000000000000000000000007bffffffffffffffffffffffffffffffffffffffffffffffffffffffff19166020820180517bffffffffffffffffffffffffffffffffffffffffffffffffffffffff8381831617835250505050612455565b50565b61232b828260405180602001604052806000815250612610565b5050565b61233882611624565b612377576040517f08c379a000000000000000000000000000000000000000000000000000000000815260040161236e906141f2565b60405180910390fd5b8060066000848152602001908152602001600020908051906020019061239e9291906128ee565b505050565b6001816000016000828254019250508190555050565b61245182826040516024016123cf929190614212565b6040516020818303038152906040527f319af333000000000000000000000000000000000000000000000000000000007bffffffffffffffffffffffffffffffffffffffffffffffffffffffff19166020820180517bffffffffffffffffffffffffffffffffffffffffffffffffffffffff8381831617835250505050612455565b5050565b60008151905060006a636f6e736f6c652e6c6f679050602083016000808483855afa5050505050565b505050565b505050565b60006124a98473ffffffffffffffffffffffffffffffffffffffff1661266b565b15612603578373ffffffffffffffffffffffffffffffffffffffff1663150b7a026124d2611690565b8786866040518563ffffffff1660e01b81526004016124f49493929190614297565b6020604051808303816000875af192505050801561253057506040513d601f19601f8201168201806040525081019061252d91906142f8565b60015b6125b3573d8060008114612560576040519150601f19603f3d011682016040523d82523d6000602084013e612565565b606091505b506000815114156125ab576040517f08c379a00000000000000000000000000000000000000000000000000000000081526004016125a290613f26565b60405180910390fd5b805181602001fd5b63150b7a0260e01b7bffffffffffffffffffffffffffffffffffffffffffffffffffffffff1916817bffffffffffffffffffffffffffffffffffffffffffffffffffffffff191614915050612608565b600190505b949350505050565b61261a838361268e565b6126276000848484612488565b612666576040517f08c379a000000000000000000000000000000000000000000000000000000000815260040161265d90613f26565b60405180910390fd5b505050565b6000808273ffffffffffffffffffffffffffffffffffffffff163b119050919050565b600073ffffffffffffffffffffffffffffffffffffffff168273ffffffffffffffffffffffffffffffffffffffff1614156126fe576040517f08c379a00000000000000000000000000000000000000000000000000000000081526004016126f590614371565b60405180910390fd5b61270781611624565b15612747576040517f08c379a000000000000000000000000000000000000000000000000000000000815260040161273e906143dd565b60405180910390fd5b6127536000838361247e565b6001600360008473ffffffffffffffffffffffffffffffffffffffff1673ffffffffffffffffffffffffffffffffffffffff16815260200190815260200160002060008282546127a39190613df2565b92505081905550816002600083815260200190815260200160002060006101000a81548173ffffffffffffffffffffffffffffffffffffffff021916908373ffffffffffffffffffffffffffffffffffffffff160217905550808273ffffffffffffffffffffffffffffffffffffffff16600073ffffffffffffffffffffffffffffffffffffffff167fddf252ad1be2c89b69c2b068fc378daa952ba7f163c4a11628f55a4df523b3ef60405160405180910390a461286460008383612483565b5050565b8280546128749061319b565b90600052602060002090601f01602090048101928261289657600085556128dd565b82601f106128af57803560ff19168380011785556128dd565b828001600101855582156128dd579182015b828111156128dc5782358255916020019190600101906128c1565b5b5090506128ea9190612974565b5090565b8280546128fa9061319b565b90600052602060002090601f01602090048101928261291c5760008555612963565b82601f1061293557805160ff1916838001178555612963565b82800160010185558215612963579182015b82811115612962578251825591602001919060010190612947565b5b5090506129709190612974565b5090565b5b8082111561298d576000816000905550600101612975565b5090565b6000604051905090565b600080fd5b600080fd5b60007fffffffff0000000000000000000000000000000000000000000000000000000082169050919050565b6129da816129a5565b81146129e557600080fd5b50565b6000813590506129f7816129d1565b92915050565b600060208284031215612a1357612a1261299b565b5b6000612a21848285016129e8565b91505092915050565b60008115159050919050565b612a3f81612a2a565b82525050565b6000602082019050612a5a6000830184612a36565b92915050565b600081519050919050565b600082825260208201905092915050565b60005b83811015612a9a578082015181840152602081019050612a7f565b83811115612aa9576000848401525b50505050565b6000601f19601f8301169050919050565b6000612acb82612a60565b612ad58185612a6b565b9350612ae5818560208601612a7c565b612aee81612aaf565b840191505092915050565b60006020820190508181036000830152612b138184612ac0565b905092915050565b6000819050919050565b612b2e81612b1b565b8114612b3957600080fd5b50565b600081359050612b4b81612b25565b92915050565b600060208284031215612b6757612b6661299b565b5b6000612b7584828501612b3c565b91505092915050565b600073ffffffffffffffffffffffffffffffffffffffff82169050919050565b6000612ba982612b7e565b9050919050565b612bb981612b9e565b82525050565b6000602082019050612bd46000830184612bb0565b92915050565b612be381612b9e565b8114612bee57600080fd5b50565b600081359050612c0081612bda565b92915050565b60008060408385031215612c1d57612c1c61299b565b5b6000612c2b85828601612bf1565b9250506020612c3c85828601612b3c565b9150509250929050565b600080fd5b600080fd5b600080fd5b60008083601f840112612c6b57612c6a612c46565b5b8235905067ffffffffffffffff811115612c8857612c87612c4b565b5b602083019150836001820283011115612ca457612ca3612c50565b5b9250929050565b60008060208385031215612cc257612cc161299b565b5b600083013567ffffffffffffffff811115612ce057612cdf6129a0565b5b612cec85828601612c55565b92509250509250929050565b600080600060608486031215612d1157612d1061299b565b5b6000612d1f86828701612bf1565b9350506020612d3086828701612bf1565b9250506040612d4186828701612b3c565b9150509250925092565b600080fd5b7f4e487b7100000000000000000000000000000000000000000000000000000000600052604160045260246000fd5b612d8882612aaf565b810181811067ffffffffffffffff82111715612da757612da6612d50565b5b80604052505050565b6000612dba612991565b9050612dc68282612d7f565b919050565b600067ffffffffffffffff821115612de657612de5612d50565b5b612def82612aaf565b9050602081019050919050565b82818337600083830152505050565b6000612e1e612e1984612dcb565b612db0565b905082815260208101848484011115612e3a57612e39612d4b565b5b612e45848285612dfc565b509392505050565b600082601f830112612e6257612e61612c46565b5b8135612e72848260208601612e0b565b91505092915050565b600060208284031215612e9157612e9061299b565b5b600082013567ffffffffffffffff811115612eaf57612eae6129a0565b5b612ebb84828501612e4d565b91505092915050565b600060208284031215612eda57612ed961299b565b5b6000612ee884828501612bf1565b91505092915050565b612efa81612b1b565b82525050565b6000602082019050612f156000830184612ef1565b92915050565b612f2481612a2a565b8114612f2f57600080fd5b50565b600081359050612f4181612f1b565b92915050565b60008060408385031215612f5e57612f5d61299b565b5b6000612f6c85828601612bf1565b9250506020612f7d85828601612f32565b9150509250929050565b600067ffffffffffffffff821115612fa257612fa1612d50565b5b612fab82612aaf565b9050602081019050919050565b6000612fcb612fc684612f87565b612db0565b905082815260208101848484011115612fe757612fe6612d4b565b5b612ff2848285612dfc565b509392505050565b600082601f83011261300f5761300e612c46565b5b813561301f848260208601612fb8565b91505092915050565b600080600080608085870312156130425761304161299b565b5b600061305087828801612bf1565b945050602061306187828801612bf1565b935050604061307287828801612b3c565b925050606085013567ffffffffffffffff811115613093576130926129a0565b5b61309f87828801612ffa565b91505092959194509250565b600080600080604085870312156130c5576130c461299b565b5b600085013567ffffffffffffffff8111156130e3576130e26129a0565b5b6130ef87828801612c55565b9450945050602085013567ffffffffffffffff811115613112576131116129a0565b5b61311e87828801612c55565b925092505092959194509250565b600080604083850312156131435761314261299b565b5b600061315185828601612bf1565b925050602061316285828601612bf1565b9150509250929050565b7f4e487b7100000000000000000000000000000000000000000000000000000000600052602260045260246000fd5b600060028204905060018216806131b357607f821691505b602082108114156131c7576131c661316c565b5b50919050565b7f4552433732313a20617070726f76656420717565727920666f72206e6f6e657860008201527f697374656e7420746f6b656e0000000000000000000000000000000000000000602082015250565b6000613229602c83612a6b565b9150613234826131cd565b604082019050919050565b600060208201905081810360008301526132588161321c565b9050919050565b7f4552433732313a20617070726f76616c20746f2063757272656e74206f776e6560008201527f7200000000000000000000000000000000000000000000000000000000000000602082015250565b60006132bb602183612a6b565b91506132c68261325f565b604082019050919050565b600060208201905081810360008301526132ea816132ae565b9050919050565b7f4552433732313a20617070726f76652063616c6c6572206973206e6f74206f7760008201527f6e6572206e6f7220617070726f76656420666f7220616c6c0000000000000000602082015250565b600061334d603883612a6b565b9150613358826132f1565b604082019050919050565b6000602082019050818103600083015261337c81613340565b9050919050565b600081905092915050565b600061339a8385613383565b93506133a7838584612dfc565b82840190509392505050565b60006133c082848661338e565b91508190509392505050565b7f4552433732313a207472616e736665722063616c6c6572206973206e6f74206f60008201527f776e6572206e6f7220617070726f766564000000000000000000000000000000602082015250565b6000613428603183612a6b565b9150613433826133cc565b604082019050919050565b600060208201905081810360008301526134578161341b565b9050919050565b7f4552433732313a206f776e657220717565727920666f72206e6f6e657869737460008201527f656e7420746f6b656e0000000000000000000000000000000000000000000000602082015250565b60006134ba602983612a6b565b91506134c58261345e565b604082019050919050565b600060208201905081810360008301526134e9816134ad565b9050919050565b7f4552433732313a2062616c616e636520717565727920666f7220746865207a6560008201527f726f206164647265737300000000000000000000000000000000000000000000602082015250565b600061354c602a83612a6b565b9150613557826134f0565b604082019050919050565b6000602082019050818103600083015261357b8161353f565b9050919050565b7f556e617574686f7269736564204f776e65722021000000000000000000000000600082015250565b60006135b8601483612a6b565b91506135c382613582565b602082019050919050565b600060208201905081810360008301526135e7816135ab565b9050919050565b7f45524337323155524953746f726167653a2055524920717565727920666f722060008201527f6e6f6e6578697374656e7420746f6b656e000000000000000000000000000000602082015250565b600061364a603183612a6b565b9150613655826135ee565b604082019050919050565b600060208201905081810360008301526136798161363d565b9050919050565b600061368b82612a60565b6136958185613383565b93506136a5818560208601612a7c565b80840191505092915050565b60006136bd8285613680565b91506136c98284613680565b91508190509392505050565b7f446f6d61696e20616c7265616479207265676973746572656420210000000000600082015250565b600061370b601b83612a6b565b9150613716826136d5565b602082019050919050565b6000602082019050818103600083015261373a816136fe565b9050919050565b7f4e6f7420656e6f756768204d6174696320706169640000000000000000000000600082015250565b6000613777601583612a6b565b915061378282613741565b602082019050919050565b600060208201905081810360008301526137a68161376a565b9050919050565b7f2e00000000000000000000000000000000000000000000000000000000000000600082015250565b60006137e3600183613383565b91506137ee826137ad565b600182019050919050565b60008190508160005260206000209050919050565b6000815461381b8161319b565b6138258186613383565b94506001821660008114613840576001811461385157613884565b60ff19831686528186019350613884565b61385a856137f9565b60005b8381101561387c5781548189015260018201915060208101905061385d565b838801955050505b50505092915050565b600061389a82858761338e565b91506138a5826137d6565b91506138b1828461380e565b9150819050949350505050565b60006138ca828661380e565b91506138d68285613680565b91506138e2828461380e565b9150819050949350505050565b7f7b226e616d65223a202200000000000000000000000000000000000000000000600082015250565b6000613925600a83613383565b9150613930826138ef565b600a82019050919050565b7f222c20226465736372697074696f6e223a20224120646f6d61696e206f6e207460008201527f6865204e696e6a61206e616d652073657276696365222c2022696d616765223a60208201527f2022646174613a696d6167652f7376672b786d6c3b6261736536342c00000000604082015250565b60006139bd605c83613383565b91506139c88261393b565b605c82019050919050565b7f222c226c656e677468223a220000000000000000000000000000000000000000600082015250565b6000613a09600c83613383565b9150613a14826139d3565b600c82019050919050565b7f227d000000000000000000000000000000000000000000000000000000000000600082015250565b6000613a55600283613383565b9150613a6082613a1f565b600282019050919050565b6000613a7682613918565b9150613a828286613680565b9150613a8d826139b0565b9150613a998285613680565b9150613aa4826139fc565b9150613ab08284613680565b9150613abb82613a48565b9150819050949350505050565b7f646174613a6170706c69636174696f6e2f6a736f6e3b6261736536342c000000600082015250565b6000613afe601d83613383565b9150613b0982613ac8565b601d82019050919050565b6000613b1f82613af1565b9150613b2b8284613680565b915081905092915050565b7f446f6d61696e206e616d65206973207265717569726564202100000000000000600082015250565b6000613b6c601983612a6b565b9150613b7782613b36565b602082019050919050565b60006020820190508181036000830152613b9b81613b5f565b9050919050565b60006040820190508181036000830152613bbc8185612ac0565b90508181036020830152613bd08184612ac0565b90509392505050565b7f4552433732313a206f70657261746f7220717565727920666f72206e6f6e657860008201527f697374656e7420746f6b656e0000000000000000000000000000000000000000602082015250565b6000613c35602c83612a6b565b9150613c4082613bd9565b604082019050919050565b60006020820190508181036000830152613c6481613c28565b9050919050565b7f4552433732313a207472616e736665722066726f6d20696e636f72726563742060008201527f6f776e6572000000000000000000000000000000000000000000000000000000602082015250565b6000613cc7602583612a6b565b9150613cd282613c6b565b604082019050919050565b60006020820190508181036000830152613cf681613cba565b9050919050565b7f4552433732313a207472616e7366657220746f20746865207a65726f2061646460008201527f7265737300000000000000000000000000000000000000000000000000000000602082015250565b6000613d59602483612a6b565b9150613d6482613cfd565b604082019050919050565b60006020820190508181036000830152613d8881613d4c565b9050919050565b7f4e487b7100000000000000000000000000000000000000000000000000000000600052601160045260246000fd5b6000613dc982612b1b565b9150613dd483612b1b565b925082821015613de757613de6613d8f565b5b828203905092915050565b6000613dfd82612b1b565b9150613e0883612b1b565b9250827fffffffffffffffffffffffffffffffffffffffffffffffffffffffffffffffff03821115613e3d57613e3c613d8f565b5b828201905092915050565b7f4552433732313a20617070726f766520746f2063616c6c657200000000000000600082015250565b6000613e7e601983612a6b565b9150613e8982613e48565b602082019050919050565b60006020820190508181036000830152613ead81613e71565b9050919050565b7f4552433732313a207472616e7366657220746f206e6f6e20455243373231526560008201527f63656976657220696d706c656d656e7465720000000000000000000000000000602082015250565b6000613f10603283612a6b565b9150613f1b82613eb4565b604082019050919050565b60006020820190508181036000830152613f3f81613f03565b9050919050565b7f4552433732314d657461646174613a2055524920717565727920666f72206e6f60008201527f6e6578697374656e7420746f6b656e0000000000000000000000000000000000602082015250565b6000613fa2602f83612a6b565b9150613fad82613f46565b604082019050919050565b60006020820190508181036000830152613fd181613f95565b9050919050565b7f4e487b7100000000000000000000000000000000000000000000000000000000600052603260045260246000fd5b600061401282612b1b565b91507fffffffffffffffffffffffffffffffffffffffffffffffffffffffffffffffff82141561404557614044613d8f565b5b600182019050919050565b7f4e487b7100000000000000000000000000000000000000000000000000000000600052601260045260246000fd5b600061408a82612b1b565b915061409583612b1b565b9250826140a5576140a4614050565b5b828204905092915050565b60006140bb82612b1b565b91506140c683612b1b565b9250826140d6576140d5614050565b5b828206905092915050565b600060608201905081810360008301526140fb8186612ac0565b9050818103602083015261410f8185612ac0565b905061411e6040830184612ef1565b949350505050565b600061413182612b1b565b915061413c83612b1b565b9250817fffffffffffffffffffffffffffffffffffffffffffffffffffffffffffffffff048311821515161561417557614174613d8f565b5b828202905092915050565b7f45524337323155524953746f726167653a2055524920736574206f66206e6f6e60008201527f6578697374656e7420746f6b656e000000000000000000000000000000000000602082015250565b60006141dc602e83612a6b565b91506141e782614180565b604082019050919050565b6000602082019050818103600083015261420b816141cf565b9050919050565b6000604082019050818103600083015261422c8185612ac0565b905061423b6020830184612bb0565b9392505050565b600081519050919050565b600082825260208201905092915050565b600061426982614242565b614273818561424d565b9350614283818560208601612a7c565b61428c81612aaf565b840191505092915050565b60006080820190506142ac6000830187612bb0565b6142b96020830186612bb0565b6142c66040830185612ef1565b81810360608301526142d8818461425e565b905095945050505050565b6000815190506142f2816129d1565b92915050565b60006020828403121561430e5761430d61299b565b5b600061431c848285016142e3565b91505092915050565b7f4552433732313a206d696e7420746f20746865207a65726f2061646472657373600082015250565b600061435b602083612a6b565b915061436682614325565b602082019050919050565b6000602082019050818103600083015261438a8161434e565b9050919050565b7f4552433732313a20746f6b656e20616c7265616479206d696e74656400000000600082015250565b60006143c7601c83612a6b565b91506143d282614391565b602082019050919050565b600060208201905081810360008301526143f6816143ba565b905091905056fe0a2d2d2d2d2d2d2d2d2d2d2d2d2d2d2d2d2d2d2d2d2d2d2d2d2d2d2d2d2d2d2d2d2d2d2d2d2d2d2d2d2d2d2d2d2d2d2d2d2d2d2d2d2d2d2d2d2d2d2d2d2d2d2d2d2d2d2d2d2d2d2d2d2d2d2d2d2d2d2d2d2d2d2d2d2d2d2d2d2d2d2d2d2d2d2d2d2d2d2d2d2d2d2d2d2d2d2d2d2d2d2d2d0a4142434445464748494a4b4c4d4e4f505152535455565758595a6162636465666768696a6b6c6d6e6f707172737475767778797a303132333435363738392b2f5265676973746572696e67202573206f6e2074686520636f6e7472616374207769746820746f6b656e4944202564a26469706673582212206b07038969a3547715a6ac3e29d06ce944f4c513b6956f92635e511ffd771e3c64736f6c634300080c00333c73766720786d6c6e733d22687474703a2f2f7777772e77332e6f72672f323030302f737667222077696474683d2232373022206865696768743d22323730222066696c6c3d226e6f6e65223e3c706174682066696c6c3d2275726c282342292220643d224d302030683237307632373048307a222f3e3c646566733e3c66696c7465722069643d22412220636f6c6f722d696e746572706f6c6174696f6e2d66696c746572733d2273524742222066696c746572556e6974733d227573657253706163654f6e55736522206865696768743d22323730222077696474683d22323730223e3c666544726f70536861646f772064783d2230222064793d22312220737464446576696174696f6e3d22322220666c6f6f642d6f7061636974793d222e323235222077696474683d223230302522206865696768743d2232303025222f3e3c2f66696c7465723e3c2f646566733e3c7061746820643d224d37322e3836332034322e393439632d2e3636382d2e3338372d312e3432362d2e35392d322e3139372d2e3539732d312e3532392e3230342d322e3139372e35396c2d31302e30383120362e3033322d362e383520332e3933342d31302e30383120362e303332632d2e3636382e3338372d312e3432362e35392d322e3139372e3539732d312e3532392d2e3230342d322e3139372d2e35396c2d382e3031332d342e37323161342e353220342e35322030203020312d312e3538392d312e363136632d2e3338342d2e3636352d2e3539342d312e3431382d2e3630382d322e313837762d392e3331632d2e3031332d2e3737352e3138352d312e3533382e3537322d322e32303861342e323520342e323520302030203120312e3632352d312e3539356c372e3838342d342e3539632e3636382d2e33383720312e3432362d2e353920322e3139372d2e353973312e3532392e32303420322e3139372e35396c372e38383420342e353961342e353220342e353220302030203120312e35383920312e363136632e3338342e3636352e35393420312e3431382e36303820322e31383776362e3033326c362e38352d342e303635762d362e303332632e3031332d2e3737352d2e3138352d312e3533382d2e3537322d322e32303861342e323520342e32352030203020302d312e3632352d312e3539354c34312e3435362032342e3539632d2e3636382d2e3338372d312e3432362d2e35392d322e3139372d2e3539732d312e3532392e3230342d322e3139372e35396c2d31342e38363420382e36353561342e323520342e32352030203020302d312e36323520312e353935632d2e3338372e36372d2e35383520312e3433342d2e35373220322e3230387631372e343431632d2e3031332e3737352e31383520312e3533382e35373220322e32303861342e323520342e323520302030203020312e36323520312e3539356c31342e38363420382e363535632e3636382e33383720312e3432362e353920322e3139372e353973312e3532392d2e32303420322e3139372d2e35396c31302e3038312d352e39303120362e38352d342e3036352031302e3038312d352e393031632e3636382d2e33383720312e3432362d2e353920322e3139372d2e353973312e3532392e32303420322e3139372e35396c372e38383420342e353961342e353220342e353220302030203120312e35383920312e363136632e3338342e3636352e35393420312e3431382e36303820322e31383776392e333131632e3031332e3737352d2e31383520312e3533382d2e35373220322e32303861342e323520342e32352030203020312d312e36323520312e3539356c2d372e38383420342e373231632d2e3636382e3338372d312e3432362e35392d322e3139372e3539732d312e3532392d2e3230342d322e3139372d2e35396c2d372e3838342d342e353961342e353220342e35322030203020312d312e3538392d312e363136632d2e3338352d2e3636352d2e3539342d312e3431382d2e3630382d322e313837762d362e3033326c2d362e383520342e30363576362e303332632d2e3031332e3737352e31383520312e3533382e35373220322e32303861342e323520342e323520302030203020312e36323520312e3539356c31342e38363420382e363535632e3636382e33383720312e3432362e353920322e3139372e353973312e3532392d2e32303420322e3139372d2e35396c31342e3836342d382e363535632e3635372d2e33393420312e3230342d2e393520312e3538392d312e363136732e3539342d312e3431382e3630392d322e3138375635352e353338632e3031332d2e3737352d2e3138352d312e3533382d2e3537322d322e32303861342e323520342e32352030203020302d312e3632352d312e3539356c2d31342e3939332d382e3738367a222066696c6c3d2223666666222f3e3c646566733e3c6c696e6561724772616469656e742069643d2242222078313d2230222079313d2230222078323d22323730222079323d2232373022206772616469656e74556e6974733d227573657253706163654f6e557365223e3c73746f702073746f702d636f6c6f723d2223636235656565222f3e3c73746f70206f66667365743d2231222073746f702d636f6c6f723d2223306364376534222073746f702d6f7061636974793d222e3939222f3e3c2f6c696e6561724772616469656e743e3c2f646566733e3c7465787420783d2233322e352220793d223233312220666f6e742d73697a653d223237222066696c6c3d2223666666222066696c7465723d2275726c282341292220666f6e742d66616d696c793d22506c7573204a616b617274612053616e732c44656a6156752053616e732c4e6f746f20436f6c6f7220456d6f6a692c4170706c6520436f6c6f7220456d6f6a692c73616e732d73657269662220666f6e742d7765696768743d22626f6c64223e",
    "linkReferences": {},
    "deployedLinkReferences": {}
}